:020000040800F2
:100000001039002061020008093000081B23000895
:10001000053000081F050008AD4000080000000082
:10002000000000000000000000000000C9010008FE
:1000300025050008000000000D020008633D0008CF
:100040007B020008453C00087B0200087B02000898
:100050007B0200087B0200087B0200087B0200088C
:100060007B0200087B0200084B0500087B020008A9
:100070007B0200087B0200087B0200087B0200086C
:100080007B0200087B0200087B0200087B0200085C
:100090007B0200087B0200087B020008550500086F
:1000A0007B020008E13D00087B0200087B0200089B
:1000B0007B020008F13D00087B0200087B0200087B
:1000C0007B0200087B0200087B0200087B0200081C
:1000D0007B0200087B0200087B0200087B0200080C
:1000E000270500087B0200087B02000800F002F8E8
:1000F00000F05AF80AA090E8000C82448344AAF168
:100100000107DA4501D100F04FF8AFF2090EBAE865
:100110000F0013F0010F18BFFB1A43F0010318473B
:1001200048B0000068B000000A444FF0000C10F81E
:10013000013B13F0070408BF10F8014B1D1108BF65
:1001400010F8015B641E05D010F8016B641E01F805
:10015000016BF9D113F0080F1EBF10F8014BAD1C55
:100160000C1B09D16D1E58BF01F801CBFAD505E073
:1001700014F8016B01F8016B6D1EF9D59142D6D3CD
:10018000704700000023002400250026103A28BFF5
:1001900078C1FBD8520728BF30C148BF0B607047F9
:1001A0001FB51FBD10B510BD00F084F91146FFF753
:1001B000F7FF05F0E7F900F0A2F903B4FFF7F2FF4B
:1001C00003BC00F0A5F90000224B19680868B0E8EC
:1001D000F00F80F30988BFF36F8F4FF0000080F3BA
:1001E00011884EF00D0E70470000000006480068B0
:1001F000006880F3088862B661B6BFF34F8FBFF323
:100200006F8F00DF00BF00BF08ED00E0EFF3098053
:10021000BFF36F8F0F4B1A6820E9F00F106008B51D
:100220004FF0500080F31188BFF34F8FBFF36F8FF3
:1002300007F0AAFD4FF0000080F31188BDE80840E8
:1002400019680868B0E8F00F80F30988BFF36F8F72
:10025000704700BF44010020EFF3058070470000A5
:100260000948804709480047FEE7FEE7FEE7FEE74A
:10027000FEE7FEE7FEE7FEE7FEE7FEE70448054986
:10028000054A064B70470000DF3D0008ED000008FE
:1002900010330020103900201035002010350020C8
:1002A00040EA010310B59B070FD1042A0DD310C8F3
:1002B00008C9121F9C42F8D020BA19BA884201D945
:1002C000012010BD4FF0FF3010BD1AB1D30703D08D
:1002D000521C07E0002010BD10F8013B11F8014B43
:1002E0001B1B07D110F8013B11F8014B1B1B01D15F
:1002F000921EF1D1184610BD032A40F2308010F052
:10030000030C00F0158011F8013BBCF1020F6244B0
:1003100098BF11F801CB00F8013B38BF11F8013B41
:10032000A2F1040298BF00F801CB38BF00F8013BEE
:1003300011F0030300F06280083AC0F0088051F821
:10034000043B083A51F804CBA0E80810F5E7121D69
:100350005CBF51F8043B40F8043BAFF30080D20788
:1003600024BF11F8013B11F801CB48BF11F8012B54
:1003700024BF00F8013B00F801CB48BF00F8012B77
:10038000704702F0FF0343EA032242EA024200F010
:1003900069B84FF0000200B51346944696462039DE
:1003A00022BFA0E80C50A0E80C50B1F12001BFF42E
:1003B000F7AF090728BFA0E80C5048BF0CC05DF894
:1003C00004EB890028BF40F8042B08BF704748BFE2
:1003D00020F8022B11F0804F18BF00F8012B704756
:1003E00070477047704710B500F05CF8006810BDAA
:1003F00010B5044600F056F8046010BD10B5203A60
:10040000C0F00B80B1E81850203AA0E81850B1E8CD
:100410001850A0E81850BFF4F5AF5FEA027C24BF83
:10042000B1E81850A0E8185044BF18C918C0BDE87A
:1004300010405FEA827C24BF51F8043B40F8043B43
:1004400008BF7047D20728BF31F8023B48BF11F8F8
:10045000012B28BF20F8023B48BF00F8012B704752
:100460004FF000020429C0F0128010F0030C3FF49A
:1004700092AFCCF1040CBCF1020F18BF00F8012BB5
:10048000A8BF20F8022BA1EB0C01FFF784BF5FEAA5
:10049000C17C24BF00F8012B00F8012B48BF00F8F5
:1004A000012B704700487047B03200200048704769
:1004B000B03200207546FFF7F9FFAE4605006946E9
:1004C000534620F00700854618B020B5FFF7D6FE4A
:1004D000BDE820404FF000064FF000074FF0000845
:1004E0004FF0000B21F00701AC46ACE8C009ACE8C6
:1004F000C009ACE8C009ACE8C0098D46704710B52A
:100500000446AFF300802046BDE81040FFF755BE1B
:1005100001491820ABBEFEE726000200704700BF6D
:10052000FEE77047704710B54FF4806000F0A8F800
:100530004FF4006000F0A4F84FF4805000F0A0F8F1
:100540004FF4005000F09CF810BD10B5102000F0E2
:1005500097F810BD10B5202000F092F8402000F070
:100560008FF8802000F08CF810BD2DE9F05F8046F8
:10057000894615461C464946404600F01FFA824609
:100580002946404600F01AFA83464BEA4A00C6B2B2
:10059000207A46EA8000C7B20F2F17D2DFE807F0B3
:1005A00016080F16121616090B16161016110A0049
:1005B00000BF00BF00BF2068401C206007E000BFF4
:1005C00000BF00BF2068401E206000E000BF00BFE9
:1005D0002672BDE8F09F72B600BFFEE770B5044614
:1005E00000F0FAF906462546681C10B10448007868
:1005F000054400BF00F0F0F9801BA842FAD370BD9B
:100600003C01002010B50446102C01D0202C05D14F
:10061000154B202210211548FFF7A7FF402C01D0D1
:10062000802C05D1124B802240211048FFF79DFFFE
:10063000B4F5806F02D0B4F5006F06D10D4B4FF4C6
:10064000006251100C48FFF790FFB4F5805F02D0B4
:10065000B4F5005F06D1094B4FF400525110064823
:10066000FFF783FF10BD0000E001002000080140FB
:10067000EC010020F8010020000C014004020020E1
:1006800010B5044604480068204020B102480460C8
:100690002046FFF7B7FF10BD140401402DE9F847CD
:1006A0000346002294466EE14FF0010808FA02F476
:1006B000D1F8008008EA0400A0427DD1DFF8DCA276
:1006C000D1F80480A8EB0A09D0453AD014DCB8F17F
:1006D000030F50D009DCB8F1000F31D0B8F1010F91
:1006E0001CD0B8F1020F49D120E0B8F1110F18D099
:1006F000B8F1120F42D11EE0B9F5881F25D006DCF3
:10070000B9F5803F20D0B9F5801F37D11AE0B9F58F
:10071000001F18D0B9F5041F30D117E0D1F80CC074
:100720002DE0D1F80C8008F1040C28E0D1F80C8001
:1007300008F1080C23E0D1F80C8008F10C0C1EE045
:1007400000BF00BF00BF00BF00BF00BFD1F80880DE
:10075000B8F1000F02D14FF0040C0BE0D1F8088083
:10076000B8F1010F03D14FF0080C1C6102E04FF00B
:10077000080C5C6103E04FF0000C00E000BF00BF1C
:10078000FF2801D8984601E003F104084646FF28F7
:1007900002D84FEA820803E0A2F108084FEA88086D
:1007A0004746D6F800804FF00F0909FA07F928EA02
:1007B00009080CFA07F900E088E048EA0908C6F8D9
:1007C0000080D1F8048008F08058B8F1805F7DD1B6
:1007D00000BFDFF8CC81D8F8188048F00108DFF8B6
:1007E000C091C9F81880C846D8F8188008F00108E8
:1007F000CDF8008000BF00BF4FEAB9384FEA920938
:1008000058F829504FEA82784FEA18794FF00F08CC
:1008100008FA09F825EA0805DFF88881434502D17E
:100820004FF0000816E0DFF88081434502D14FF019
:1008300001080FE0DFF87481434502D14FF0020850
:1008400008E0DFF86C81434502D14FF0030801E076
:100850004FF004084FEA82794FEA197908FA09F84B
:1008600048EA0505DFF84C814FEA920948F829501B
:10087000D1F8048008F48018B8F5801F0AD1DFF899
:100880003881D8F8008048EA0008DFF82C91C9F8D0
:10089000008009E0DFF82081D8F8008028EA00080D
:1008A000DFF81491C9F80080D1F8048008F400182A
:1008B000B8F5001F10D1DFF8008108F10408D8F85E
:1008C000008048EA0008DFF8F09000E05AE009F103
:1008D0000409C9F800800DE0DFF8DC8008F10408A5
:1008E000D8F8008028EA0008DFF8CC9009F1040964
:1008F000C9F80080D1F8048008F40038B8F5003F4A
:100900000ED1DFF8B480A8F10408D8F8008048EAD6
:100910000008DFF8A490A9F10409C9F800800DE0EF
:10092000DFF89480A8F10408D8F8008028EA0008CD
:10093000DFF88490A9F10409C9F80080D1F8048097
:1009400008F48038B8F5803F0ED1DFF86C80A8F14C
:100950000808D8F8008048EA0008DFF85C90A9F1A0
:100960000809C9F800800DE0DFF84C80A8F10808FC
:10097000D8F8008028EA0008DFF83C90A9F10809BF
:10098000C9F80080521CD1F8008028FA02F8B8F1AA
:10099000000F7FF489AEBDE8F88700000000111059
:1009A0000010024000080140000C0140001001400E
:1009B0000014014008000140080401400246936809
:1009C0000B400BB1012000E0002070470AB101612B
:1009D00001E00B04036170470148006870470000A4
:1009E0003401002070B504460CB9012070BD94F8A4
:1009F0003D0028B9002084F83C00204600F046FB6A
:100A0000242084F83D002068006820F0010021685F
:100A100008602068006840F4004021680860206891
:100A2000006820F400402168086000F07FFD054662
:100A30005C496068884206D85B48854201D2012043
:100A400007E0002005E05948854201D2012000E07E
:100A50000020012800D1C9E75548B5FBF0F6206811
:100A6000406820F03F003043216848604D4960688D
:100A7000884201D8701C07E04FF4967070434FF421
:100A80007A71B0FBF1F0401C2168096A21F03F0146
:100A900008432168086243496068884214D8681E88
:100AA00061684900B0FBF1F0401CC0F30B00042862
:100AB00001D204203DE0681E61684900B0FBF1F0FE
:100AC000401CC0F30B0034E0A06838B9681E6168B0
:100AD00001EB4101B0FBF1F0401C0AE0681E6168C7
:100AE00001EBC10202EB0111B0FBF1F0401C40F43C
:100AF0008040C0F30B0008B901201AE0A06848B993
:100B0000681E616801EB4101B0FBF1F0401CC0F3CD
:100B10000B000CE0681E616801EBC10202EB0111E1
:100B2000B0FBF1F0401CC0F30B0040F4804040F4F7
:100B300000402168C9694CF6FF729143084321685F
:100B4000C861D4E9070108432168096821F0C001A0
:100B5000084321680860D4E90310084321688968C4
:100B600048F2FF329143084321688860D4E90501C7
:100B700008432168C96821F0FF0108432168C86063
:100B80002068006840F001002168086000202064AF
:100B9000202084F83D000020206384F83E0000BF40
:100BA00024E70000A086010080841E0000093D00AB
:100BB00040420F002DE9FE4F04460F4690469946ED
:100BC000DDE90CAB0E9E00200290FFF705FF054605
:100BD00094F83D00202872D119230122CE492046E5
:100BE000009501F00EFD10B10220BDE8FE8F00BFA0
:100BF00094F83C00012801D10220F6E7012084F896
:100C00003C0000BF2068006800F0010028B920689F
:100C1000006840F00100216808602068006820F446
:100C2000006021680860222084F83D00402084F89C
:100C30003E0000202064C4F824A0A4F82AB0608DEF
:100C40002085B648E0624B46424639462046CDE90B
:100C5000006501F083FB08B10120C6E7208D88B94B
:100C600000BF0020019020684069019020688069E1
:100C7000019000BF00BF2068006840F40070216848
:100C800008604BE0208D01281AD12068006820F40C
:100C900080602168086072B600BF00200190206863
:100CA0004069019020688069019000BF00BF206802
:100CB000006840F400702168086062B62EE029E107
:100CC000208D022819D12068006840F40060216856
:100CD000086072B600BF0020019020684069019052
:100CE00020688069019000BF00BF2068006820F480
:100CF00080602168086062B610E02068006840F4F7
:100D000080602168086000BF002001902068406971
:100D1000019020688069019000BF00BFEBE0208D4A
:100D200003287DD8208D012815D12A46314620463A
:100D300001F043FD08B1012057E720680069616AAE
:100D40000870606A401C6062208D401E2085608DA6
:100D5000401E6085CFE0208D02282CD13346002232
:100D60006F492046009501F04CFC08B101203CE79A
:100D700072B62068006840F400702168086020683E
:100D80000069616A0870606A401C6062208D401EC4
:100D90002085608D401E608562B620680069616AAA
:100DA0000870606A401C6062208D401E2085608D46
:100DB000401E60859FE03346002259492046009539
:100DC00001F01FFC08B101200FE72068006820F443
:100DD00080602168086072B620680069616A0870E6
:100DE000606A401C6062208D401E2085608D401E20
:100DF00060854C4800681921B0FBF1F04FF47A711E
:100E0000B0FBF1F0C0EBC00000EB8000029000BF2F
:100E10000298401E02900298A8B90020206300E0CA
:100E200039E0202084F83D00002084F83E00206C4A
:100E300040F02000206462B600BF002084F83C002F
:100E400000BF0120D1E620684069C0F3800000287F
:100E5000DED02068006840F40070216808602068D7
:100E60000069616A0870606A401C6062208D401EE3
:100E70002085608D401E608562B620680069616AC9
:100E80000870606A401C6062208D401E2085608D65
:100E9000401E60852FE02A463146204601F08DFC39
:100EA00008B10120A1E620680069616A0870606AE3
:100EB000401C6062208D401E2085608D401E608534
:100EC00020684069C0F38000A8B1208D032805D1B7
:100ED0002068006820F4806021680860206800694C
:100EE000616A0870606A401C6062208D401E208527
:100EF000608D401E6085208D00287FF410AF20207B
:100F000084F83D00002084F83E0000BF84F83C00D7
:100F100000BF6AE6022068E6020010000000FFFF42
:100F200004000100400100202DE9FC5F04460F464B
:100F300090469946DDE90CAB0E9EFFF74DFD054648
:100F400094F83D0020287DD1192301224D492046E7
:100F5000009501F056FB10B10220BDE8FC9F00BFD8
:100F600094F83C00012801D10220F6E7012084F822
:100F70003C0000BF2068006800F0010028B920682C
:100F8000006840F00100216808602068006820F4D3
:100F9000006021680860212084F83D00402084F82A
:100FA0003E0000202064C4F824A0A4F82AB0608D7C
:100FB00020853548E0624B46424639462046CDE919
:100FC000006501F07BFA08B10120C6E731E02A464E
:100FD0003146204601F036FC50B1206C042805D182
:100FE0002068006840F40070216808600120B4E7C0
:100FF000606A007821680861606A401C6062208D28
:10100000401E2085608D401E608520684069C0F3C9
:10101000800070B1208D60B1606A0078216808613D
:10102000606A401C6062208D401E2085608D401EDD
:101030006085208D0028CAD12A463146204601F01D
:10104000ADFA00E01CE050B1206C042805D1206806
:10105000006840F400702168086001207DE7206886
:10106000006840F4007021680860202084F83D008A
:10107000002084F83E0000BF84F83C0000BF6CE70D
:1010800002206AE7020010000000FFFF10B586B0E2
:101090000446002002900390049005901A492068AD
:1010A00088422FD100BF1948806940F008001749D5
:1010B00088610846806900F00800019000BF00BF09
:1010C0004FF440700290122003900320059002A973
:1010D0000F48FFF7E3FA00BF0E49486840F0E060B0
:1010E00040F00200486000BF00BF0848C06940F4FB
:1010F00000100649C8610846C06900F4001001905C
:1011000000BF00BF06B010BD0054004000100240F8
:10111000000C0140000001400348006803490978C1
:101120000844014908607047340100203C01002058
:1011300010B50848006840F0100006490860032018
:1011400000F0E0F80F2000F007F800F055F800205C
:1011500010BD000000200240F0B587B00446002614
:101160000027002500BF1F48806940F400601D492A
:1011700088610846806900F40060009000BF00BFED
:1011800001A902A800F0AAF900F0E0F90646164805
:10119000B6FBF0F0471E15481549086040F2E731EC
:1011A0001348C1604760002101618160816100F0E6
:1011B0008BFC054695B90E4800F012FD05466DB949
:1011C000192000F051F8102C07D2002221461920D6
:1011D00000F05AF80748046000E00125284607B0EF
:1011E000F0BD00000010024040420F00002C014002
:1011F000940500203801002008B500BF1848806918
:1012000040F00100164988610846806900F001003D
:10121000009000BF00BF00BF0846C06940F080508A
:10122000C8610846C06900F08050009000BF00BF50
:1012300000220F21901E00F027F800220521012036
:1012400000F022F8012000F00FF800BF05494868BF
:1012500020F0E06040F00070486000BF08BD000072
:10126000001002400000014001460846002809DB4A
:1012700000F01F0301229A4043099B0003F1E02381
:10128000C3F8002100BF70472DE9F05F80460D468E
:101290001646002702F034FF074639462A463346F1
:1012A00001F00700C0F1070ABAF1040F02D94FF0AC
:1012B000040A01E0C0F1070AD14600F1040ABAF1BC
:1012C000070F02D24FF0000A01E0A0F1030AD44652
:1012D0004FF0010A0AFA09FAAAF1010A0AEA020A17
:1012E0000AFA0CFA4FF0010B0BFA0CFBABF1010BF5
:1012F0000BEA030B4AEA0B042146404602F008FFC2
:10130000BDE8F09F00BF00F00702064B19684FF6DA
:10131000FF031940044B0B4343EA0221014B1960C0
:1013200000BF70470CED00E00000FA0570470000B8
:1013300010B50648006800F4803028B1FFF7F6FFCA
:101340004FF480300149086010BD000014040140D2
:1013500070B504460D460CB9012070BD5A480068AE
:1013600000F00700A8420ED25748006820F007009E
:101370002843554908600846006800F00700A84265
:1013800001D00120E9E7207800F0020002281DD1F9
:10139000207800F00400042805D14C48406840F44F
:1013A000E0604A494860207800F00800082805D12C
:1013B0004648406840F460504449486043484068AB
:1013C00020F0F000A168084340494860207800F010
:1013D000010078B36068012806D13C48006800F439
:1013E000003090B90120B8E76068022806D137487C
:1013F000006800F0007040B90120AEE73348006893
:1014000000F0020008B90120A7E73048406820F04A
:101410000300616808432D494860FFF7DDFA06467E
:1014200009E0FFF7D9FA801B41F28831884202D9DE
:10143000032092E707E02548406800F00C0061684F
:10144000B0EB810FEDD12048006800F00700A84202
:101450000ED91D48006820F0070028431A4908608B
:101460000846006800F00700A84201D0012074E798
:10147000207800F00400042807D11448406820F4C4
:10148000E060E168084311494860207800F00800F6
:10149000082808D10D48406820F46050216940EACE
:1014A000C1000A49486000F061F808494968C1F381
:1014B0000311074A515CC8400649086006480068A5
:1014C000FFF74AFE002048E70020024000100240DB
:1014D00042AF000840010020380100200F220260C6
:1014E0000D4A526802F0030242600B4A526802F051
:1014F000F0028260084A526802F4E062C260064A62
:10150000526802F46052D2080261044A126802F082
:1015100007020A60704700000010024000200240ED
:1015200001480068704700004001002000B5FFF747
:10153000F7FF04494968C1F30221034A515CC840DE
:1015400000BD00000010024052AF000800B5FFF7D8
:10155000E7FF04494968C1F3C221034A515CC8400E
:1015600000BD00000010024052AF000870B500211D
:101570000022002400230020134D696801F00C05AF
:10158000F5B1042D02D0082D19D101E00F4819E062
:101590000F4DC1F38346AB5D01F4803555B10A4D63
:1015A0006D68C5F340450B4E725D084D5D43B5FB5C
:1015B000F2F402E0084D03FB05F4204602E000BF10
:1015C000024800BF00BF70BD0010024000127A0048
:1015D00030AF000840AF000800093D00F8B50446F0
:1015E0000CB90120F8BD207800F00100002878D067
:1015F000F848406800F00C0004280CD0F54840681A
:1016000000F00C00082811D1F248406800F4803046
:10161000B0F5803F0AD1EF48006800F400300028A0
:101620005FD0606800285CD10120DBE700BF606804
:10163000B0F5803F06D1E748006840F48030E549C6
:10164000086028E0606858B9E248006820F48030FB
:10165000E04908600846006820F4802008601AE02D
:101660006068B0F5A02F0BD1DA48006840F4802004
:10167000D84908600846006840F4803008600AE0F5
:10168000D448006820F48030D249086008460068D9
:1016900020F48020086000BF606888B1FFF79CF9E3
:1016A000054606E0FFF798F9401B642801D903209E
:1016B00098E7C848006800F400300028F2D010E035
:1016C000FFF78AF9054606E0FFF786F9401B642814
:1016D00001D9032086E7BF48006800F400300028E5
:1016E000F2D1207800F00200022857D1B9484068B2
:1016F00000F00C0050B1B748406800F00C0008281A
:1017000018D1B448406800F4803098B9B1480068F6
:1017100000F0020020B12069012801D0012061E71A
:10172000AC48006820F0F800616940EAC100A949AE
:10173000086033E02069E8B10120A7490860FFF79D
:101740004BF9054606E0FFF747F9401B022801D98F
:10175000032047E79F48006800F002000028F2D00D
:101760009C48006820F0F800616940EAC10099498E
:10177000086013E0002098490860FFF72DF905463E
:1017800006E0FFF729F9401B022801D9032029E7C9
:101790009048006800F002000028F2D1207800F0A4
:1017A000080008282DD1A069B8B101208B49086034
:1017B000FFF712F9054606E0FFF70EF9401B022875
:1017C00001D903200EE78348406A00F00200002898
:1017D000F2D0012002F0ACFA13E000207F4908604B
:1017E000FFF7FAF8054606E0FFF7F6F8401B022877
:1017F00001D90320F6E67748406A00F0020000288D
:10180000F2D1207800F00400042873D10027714839
:10181000C06900F0805070B900BF6E48C06940F0E8
:1018200080506C49C8610846C06900F08050009043
:1018300000BF00BF01276A48006800F48070B0B99B
:101840006748006840F4807065490860FFF7C4F895
:10185000054606E0FFF7C0F8401B642801D90320C5
:10186000C0E65F48006800F480700028F2D000BF36
:10187000E068012806D15748006A40F00100554948
:10188000086227E0E06858B95248006A20F0010079
:10189000504908620846006A20F00400086219E016
:1018A000E06805280BD14B48006A40F00400494924
:1018B00008620846006A40F0010008620AE04548F4
:1018C000006A20F00100434908620846006A20F0DF
:1018D0000400086200BFE068A0B1FFF77DF805468C
:1018E00009E0FFF779F8401B41F28831884202D9BC
:1018F000032077E622E03748006A00F00200002863
:10190000EFD012E0FFF768F8054608E0FFF764F84B
:10191000401B41F28831884201D9032062E62D48FC
:10192000006A00F002000028F0D1012F05D12948FB
:10193000C06920F080502749C86100BFE069C8B382
:101940002448406800F00C00082860D0E0690228B4
:1019500048D1002020490866FFF73EF8054606E01A
:10196000FFF73AF8401B022801D903203AE619484C
:10197000006800F000700028F2D1206AB0F5803FC6
:1019800007D11448406820F40030A1680843114989
:101990004860D4E9080108430E49496821F47411EC
:1019A00008430C49486001200B490866FFF714F80A
:1019B000054607E03DE0FFF70FF8401B022801D97C
:1019C00003200FE60348006800F000700028F2D002
:1019D0002FE000000010024000004242800442421A
:1019E00000700040002014490866FEF7F5FF054628
:1019F00006E0FEF7F1FF401B022801D90320F1E5C4
:101A00000E48006800F000700028F2D111E0E06993
:101A1000012800D1E6E50948466806F48031206ACD
:101A2000814204D106F47011606A814201D0012024
:101A3000D8E50020D6E50000000042420010024038
:101A40007047704730B502460B4600BF92F83C0025
:101A5000012801D1022030BD012082F83C0000BFE6
:101A6000022082F83D00106844681068816824F004
:101A700070041868044310684460104D1068A84250
:101A80000BD01068B0F1804F07D00D4D1068A84200
:101A900003D00C4D1068A84205D121F08001586890
:101AA000014310688160012082F83D0000BF0020E2
:101AB00082F83C0000BF00BFCDE70000002C0140D1
:101AC000000400400008004010B504460CB9012095
:101AD00010BD94F83D0028B9002084F83C00204651
:101AE00000F026F8022084F83D00211D206802F055
:101AF00087F9012084F8460000BF84F83E000121E8
:101B00003F200155402001554120015500BF00BF35
:101B1000012084F84200432001554420015545200E
:101B2000015500BF012084F83D000020D0E70000EF
:101B300038B504460D492068884215D100BF0C48CD
:101B4000C06940F002000A49C8610846C06900F057
:101B50000200009000BF00BF002205211D20FFF7FA
:101B600093FB1D20FFF780FB38BD00000004004000
:101B700000100240014691F83D00012801D00120EB
:101B80007047022081F83D00124B086898420BD044
:101B90000868B0F1804F07D00F4B0868984203D017
:101BA0000E4B086898420CD10868806800F0070264
:101BB000062A0CD00868006840F001000B68186025
:101BC00005E00868006840F001000B68186000201C
:101BD000D6E70000002C014000040040000800404F
:101BE000014691F83D00012801D0012070470220F4
:101BF00081F83D000868C06840F001000B68D860BB
:101C0000124B086898420BD00868B0F1804F07D09B
:101C10000F4B0868984203D00E4B086898420CD1CD
:101C20000868806800F00702062A0CD0086800687F
:101C300040F001000B68186005E00868006840F09B
:101C400001000B6818600020D0E70000002C014064
:101C500000040040000800402DE9F04104460D4614
:101C6000002700BF94F83C00012802D10220BDE803
:101C7000F081012084F83C0000BF022084F83D0080
:101C80002068866826F0770626F47F4620688660FE
:101C90002868502833D00CDC202850D004DC0028E1
:101CA0004BD0102851D149E0302849D040284CD1A0
:101CB00039E060282DD0702807D0B0F5805F03D0C0
:101CC000B0F5005F41D10DE041E0D5E902136A684B
:101CD000206802F0E8F82068866846F077062068F9
:101CE000866034E0D5E902136A68206802F0DBF808
:101CF0002068806840F480402168886027E0EA68B6
:101D00006968206802F0A0F95021206802F0D6F836
:101D10001DE0EA686968206802F0A9F9602120687E
:101D200002F0CCF813E0EA686968206802F08CF9E8
:101D30004021206802F0C2F809E000BF00BF00BFE8
:101D40002968206802F0BAF801E0012700BF00BF4F
:101D5000012084F83D0000BF002084F83C0000BF53
:101D6000384684E7704770B504462068C568206827
:101D7000066906F00200022819D105F002000228C7
:101D800015D1401F216808610120207720688069F3
:101D900000F0030018B12046FFF7E4FF05E02046FD
:101DA00000F0C2F8204600F08BF90020207706F002
:101DB0000400042819D105F00400042815D1C043FB
:101DC00021680861022020772068806900F4407053
:101DD00018B12046FFF7C6FF05E0204600F0A4F842
:101DE000204600F06DF90020207706F00800082852
:101DF00019D105F00800082815D1C04321680861F1
:101E0000042020772068C06900F0030018B1204644
:101E1000FFF7A8FF05E0204600F086F8204600F016
:101E20004FF90020207706F01000102819D105F096
:101E30001000102815D1C0432168086108202077C0
:101E40002068C06900F4407018B12046FFF78AFF8F
:101E500005E0204600F068F8204600F031F9002047
:101E6000207706F0010048B105F0010030B16FF0B5
:101E7000010021680861204600F08EF906F080001C
:101E8000802809D105F08000802805D1C043216851
:101E900008612046FFF7D4FD06F04000402809D134
:101EA00005F04000402805D1C04321680861204664
:101EB00000F032FA06F02000202809D105F02000B9
:101EC000202805D1C043216808612046FFF7B9FDED
:101ED00070BD000010B586B004460020029003904B
:101EE000049005902068B0F1804F16D100BF0C48D7
:101EF000806940F004000A4988610846806900F062
:101F00000400019000BF00BF0F2002900220039048
:101F1000059002A90348FEF7C1FB06B010BD000002
:101F2000001002400008014070472DE9F0410446CE
:101F30000D461646002700BF94F83C00012802D148
:101F40000220BDE8F081012084F83C0000BF36B1DA
:101F5000042E1BD0082E31D00C2E5ED145E0294630
:101F6000206801F0B5FF2068806940F00800216812
:101F700088612068806920F00400216888612068F9
:101F80008069296908432168886148E029462068FA
:101F900001F0CEFF2068806940F40060216888610C
:101FA0002068806920F480602168886120688069E9
:101FB000296940EA01202168886130E029462068CB
:101FC00001F0EAFF2068C06940F008002168C8619C
:101FD0002068C06920F004002168C8612068C069D9
:101FE000296908432168C86119E02946206802F080
:101FF00007F82068C06940F400602168C861206863
:10200000C06920F480602168C8612068C0692969BE
:1020100040EA01202168C86101E0012700BF00BF3C
:1020200000BF002084F83C0000BF384689E710B5A7
:1020300004460CB9012010BD94F83D0028B90020D9
:1020400084F83C00204600F025F8022084F83D008A
:10205000211D206801F0D4FE012084F8460000BF55
:1020600084F83E0001213F200155402001554120C8
:10207000015500BF00BF012084F8420043200155F4
:10208000442001554520015500BF012084F83D0042
:102090000020D0E708B50168B1F1804F0DD100BF35
:1020A0000649C96941F00101044AD1611146C96973
:1020B00001F00101009100BF00BF08BD0010024007
:1020C0007047000070B504460D4615B994F83E00FF
:1020D0000BE0042D02D13F20005D06E0082D02D167
:1020E0004020005D01E04120005D012801D0012079
:1020F00070BD1DB9022084F83E000EE0042D03D10E
:1021000002213F20015508E0082D03D10221402083
:10211000015502E002214120015501222946206893
:1021200001F0B0FE19492068884201D1012000E089
:10213000002028B12068406C40F4004021684864C9
:102140001249206888420BD02068B0F1804F07D038
:102150000F492068884203D00E49206888420CD17C
:102160002068806800F00706062E0CD02068006802
:1021700040F001002168086005E02068006840F038
:102180000100216808600020B2E70000002C014037
:10219000000400400008004030B589B004465049B2
:1021A0002068884201D1FEF7B7FF4E492068884277
:1021B0007ED100200890079006900590049003902F
:1021C000029001904849086807F024FD04904749AF
:1021D000086807F01FFD03904549086807F01AFDDD
:1021E00002904449086807F015FD01903E4948688F
:1021F00007F010FD0546049907F09AFE0890049830
:1022000007F0CCFC384948603849486807F002FDBF
:102210000546039907F08CFE0790039807F0BEFC73
:10222000324948603249486807F0F4FC0546029993
:1022300007F07EFE80F000400690029807F0AEFCAA
:102240002B4948602B49486807F0E4FC0546019992
:1022500007F06EFE80F000400590019807F09EFCAC
:102260002449486000231A4608A92348006804F05E
:10227000EDF900231A4607A92048006804F0E6F9A2
:1022800000231A4606A91E48006804F0DFF900235F
:102290001A4605A91B48006804F0D8F900231A461D
:1022A00004A91948006804F0D1F900231A4600E097
:1022B00013E003A91548006804F0C8F900231A4682
:1022C00002A91348006804F0C1F900231A4601A9C5
:1022D0001048006804F0BAF900BF09B030BD000032
:1022E000002C014000040040E0010020EC0100202F
:1022F000F801002004020020100100201401002039
:10230000180100201C0100202001002024010020D1
:10231000280100202C010020704700BFFEE7014685
:1023200008684069C0F38020B0B16FF480600A682B
:10233000506100200863202081F83D00002081F8D2
:102340003E00086C40F00400086400BF002081F8E3
:102350003C0000BF012070470020FCE72DE9F84356
:1023600004460F4615469946DDE908862068006850
:1023700040F48060216808602068006840F4807044
:1023800021680860434600224FF001112046009664
:1023900000F037F960B12068006800F48070B0F593
:1023A000807F02D14FF4007020640320BDE8F883E1
:1023B00007F0FE0021680861334642463E49204648
:1023C00000F07EF908B10120F0E700BF0020009086
:1023D00020684069009020688069009000BF00BFBD
:1023E00032464146204600F02DFA50B1206C0428B8
:1023F00005D12068006840F4007021680860012061
:10240000D4E7B9F1010F03D1E8B22168086117E000
:10241000C5F307202168086132464146204600F096
:1024200011FA50B1206C042805D12068006840F4EE
:102430000070216808600120B8E7E8B221680861EF
:1024400032464146204600F0FDF950B1206C042888
:1024500005D12068006840F4007021680860012000
:10246000A4E72068006840F4807021680860434653
:1024700000224FF001112046009600F0C2F858B13A
:102480002068006800F48070B0F5807F02D14FF4BE
:1024900000702064032089E7F8B240F00100216851
:1024A0000861334642460449204600F009F908B164
:1024B00001207BE7002079E7020001002DE9F843C5
:1024C0000446884615469946DDE908672068006895
:1024D00040F4807021680860334600224FF00111FB
:1024E0002046009700F08DF860B12068006800F485
:1024F0008070B0F5807F02D14FF40070206403201B
:10250000BDE8F88308F0FE00216808613B463246CA
:102510002149204600F0D4F808B10120F0E700BFBF
:102520000020009020684069009020688069009039
:1025300000BF00BF3A463146204600F083F950B153
:10254000206C042805D12068006840F400702168E0
:1025500008600120D4E7B9F1010F03D1E8B2216886
:10256000086117E0C5F30720216808613A46314643
:10257000204600F067F950B1206C042805D120688E
:10258000006840F40070216808600120B8E7E8B2F4
:10259000216808610020B3E70200010070B504461D
:1025A0000D46164625E02046FFF7B9FE08B101208A
:1025B00070BD681CE8B1FEF70FFA801BA84200D876
:1025C000BDB920684069C0F3800090B90020206345
:1025D000202084F83D00002084F83E00206C40F06C
:1025E0002000206400BF002084F83C0000BF0120D0
:1025F000DEE720684069C0F380000028D3D00020C7
:10260000D6E72DE9F04104460D4617461E46DDF893
:10261000188038E0701CA8B3FEF7DEF9A0EB0800C4
:10262000B04200D876BBC5F3074001280AD1206824
:102630004069A9B20840A9B2884201D101200BE04B
:10264000002009E020688069A9B20840A9B2884248
:1026500001D1012000E00020B84214D10020206305
:10266000202084F83D00002084F83E00206C40F0DB
:102670002000206400BF002084F83C0000BF01203F
:10268000BDE8F081FFE7C5F3074001280AD12068C3
:102690004069A9B20840A9B2884201D101200BE0EB
:1026A000002009E020688069A9B20840A9B28842E8
:1026B00001D1012000E00020B842ABD00020DFE7CC
:1026C0002DE9F04104460D4616461F4658E02068A5
:1026D0004069C0F38020E8B12068006840F40070D1
:1026E000216808606FF480602168486100202063E1
:1026F000202084F83D00002084F83E00206C40F04B
:102700000400206400BF002084F83C0000BF0120CA
:10271000BDE8F081701C90B3FEF75EF9C01BB042BB
:1027200000D866BBC5F3074001280AD1206840697C
:10273000A9B20840A9B2884201D101200BE00020D3
:1027400009E020688069A9B20840A9B2884201D195
:10275000012000E0002090B900202063202084F8B0
:102760003D00002084F83E00206C40F020002064F2
:1027700000BF002084F83C0000BF0120C8E7FFE74D
:10278000C5F3074001280AD120684069A9B2084072
:10279000A9B2884201D101200BE0002009E02068A5
:1027A0008069A9B20840A9B2884201D1012000E0A5
:1027B000002000288BD00020AAE770B504460D4603
:1027C000164637E020684069C0F30010A0B16FF0F2
:1027D00010002168486100202063202084F83D001B
:1027E000002084F83E00206C206400BF002084F8A4
:1027F0003C0000BF012070BDFEF7EEF8801BA84230
:1028000000D8BDB920684069C0F3801090B900209D
:102810002063202084F83D00002084F83E00206CD6
:1028200040F02000206400BF002084F83C0000BF7E
:102830000120E0E720684069C0F380100028C1D083
:102840000020D8E770B504460D46164625E0204620
:10285000FFF765FD08B1012070BD681CE8B1FEF707
:10286000BBF8801BA84200D8BDB920684069C0F3FE
:10287000C01090B900202063202084F83D00002083
:1028800084F83E00206C40F02000206400BF00204F
:1028900084F83C0000BF0120DEE720684069C0F3F7
:1028A000C0100028D3D00020D6E700002DE9F04F5B
:1028B00099B004460D4616464FF07E574FF000087B
:1028C0004FF000094FF0000A0EA80FA910AB11AA93
:1028D000CDE9001015A917A802F0ECFA20B14FF0CD
:1028E000FF3019B0BDE8F08FBDF83C0000F48070F7
:1028F00000287CD0119807F08DF983464FF09D4158
:1029000007F056F80746129807F084F983464FF00F
:102910009D4107F04DF88046139807F07BF98346F8
:102920004FF09D4107F044F88146149807F072F982
:1029300083464FF09D4107F03BF8824639464FF001
:10294000804007F0C7F94946059007F0C3F94146B2
:1029500007904FF0404007F0BDF95146059007F051
:10296000B9F90690079906F0AFFF834606F080FF9D
:10297000CDE9080101F00CFD4FF06632524BCDE974
:102980000A0106F065FCCDE90C0106F0B1F9206002
:1029900049464FF0804007F09DF94946029007F004
:1029A00099F9414604904FF0404007F093F94146B1
:1029B000029007F08FF90390049907F0C3FA834659
:1029C0004FF07E5106F080FF059006F051FFCDE9F3
:1029D000080139464FF0804007F07CF941460390EA
:1029E00007F078F9494604904FF0804000E069E034
:1029F00007F070F95146039007F06CF9834604998B
:102A000006F062FF059006F033FFCDE90601DDE92F
:102A1000082301F005FF4FF066322B4BCDE90A0188
:102A200006F016FCCDE90C0106F062F9286051466B
:102A3000504607F04FF949460490484607F04AF9D6
:102A400041460390404607F045F939460190384623
:102A500007F040F90090019906F036FF02900399C3
:102A600007F070FA8346049907F06CFA059006F0B7
:102A7000FFFECDE908014946404607F02BF95146D3
:102A80000490384607F026F90390049906F01CFFDD
:102A90004FF08041059007F01DF9834606F0E8FEEF
:102AA000CDE90601DDE9082301F0BAFE4FF06632F8
:102AB000054BCDE90A0106F0CBFBCDE90C0106F090
:102AC00017F9306000200CE766A64C4038B5684620
:102AD00002F0F8FD044614B14FF0FF3038BD782005
:102AE00003F00AFC044614B16FF00100F6E7782009
:102AF00002F08AFD044614B16FF00200EEE7C82030
:102B000003F0A2FB044614B16FF00300E6E702F005
:102B1000C5F9044614B16FF00400DFE7124802F073
:102B2000F5FC054602F0E8FA044614B16FF0050022
:102B3000D4E740F2731002F059F8044614B16FF074
:102B40000600CBE7C82002F09FFA044614B16FF0EC
:102B50000700C3E7012003F045FA044614B16FF003
:102B60000900BBE70020B9E72C0000200EB50020CB
:102B7000029001900090FFF7A9FF1549086003E05B
:102B8000FFF7A4FF12490860114800680028F7D138
:102B900000BF02AA694601A8FFF788FE98B90D4850
:102BA0000078C82804DA0B480078401C09490870EE
:102BB00000231A4602A90848006803F047FD1420C4
:102BC00005F002F8E5E7012004F0FEFFE1E7000070
:102BD000F4000020EC0000200C01002010B5324B66
:102BE00000220121314803F0CFFD31490860314A0C
:102BF0000421052003F0DCFC2F4908602F4A042142
:102C0000084603F0D5FC2E4908602E4A04210846E8
:102C100003F0CEFC2C4908602C4A0421084603F03E
:102C2000C7FC2B4908602B4A0421084603F0C0FC6E
:102C300029490860294A0421084603F0B9FC2849BB
:102C40000860284A0421084603F0B2FC26490860BF
:102C5000264A0421084603F0ABFC25490860254AB2
:102C60000421084603F0A4FC23490860234A0021FC
:102C7000234803F02DFD23490860234A00212348FF
:102C800003F026FD22490860224A0021224803F071
:102C90001FFD22490860224A0021224803F018FD46
:102CA0002149086010BD000020AF0008230500087E
:102CB0003001002048AE00080C01002060AE000882
:102CC0001001002078AE00081401002090AE00082A
:102CD00018010020A8AE00081C010020C0AE0008AA
:102CE00020010020D8AE000824010020F0AE00082A
:102CF0002801002008AF00082C010020B8AD000812
:102D0000593D0008FC000020DCAD00086D2B0008D8
:102D10000001002000AE00080D3000080401002072
:102D200024AE0008C57200080801002000B585B077
:102D30000020019002900390049000BF57488069E2
:102D400040F01000554988610846806900F0100085
:102D5000009000BF00BF00BF0846806940F020001F
:102D600088610846806900F02000009000BF00BF25
:102D700000BF0846806940F0040088610846806909
:102D800000F00400009000BF00BF00BF084680694B
:102D900040F0080088610846806900F00800009053
:102DA00000BF00BF00224FF4C0413D48FDF70EFEBA
:102DB00000224CF22B013B48FDF708FE00224FF4A5
:102DC00070613948FDF702FE4FF4C04001900120C8
:102DD0000290002003900220049001A93048FDF7E2
:102DE0005DFCF0200190314802900120039001A980
:102DF0002D48FDF753FC4CF22B000190012002906E
:102E000003900220049001A92648FDF747FC4FF4E7
:102E100070500190254802900120039001A921489B
:102E2000FDF73CFC4FF440700190012002900390AC
:102E30000220049001A91C48FDF730FC4FF44060CB
:102E4000019001200290002003900220049001A92B
:102E50001548FDF723FC10200190002002900390FC
:102E600001A91048FDF71AFC002205210A20FEF7EF
:102E70000BFA0A20FEF7F8F9002205211720FEF7C9
:102E800003FA1720FEF7F0F9002205212820FEF7AB
:102E9000FBF92820FEF7E8F905B000BD001002405C
:102EA00000100140000C01400008014000003110FA
:102EB00010B50B480B4908600B48486000210948D1
:102EC0008160C1604FF480410161002141618161F5
:102ED000C1610162FDF786FD08B1FDF77CFB10BD05
:102EE00000540040B0040020801A060000B589B0EC
:102EF0000020079008901C216846FDF74AFA4FF021
:102F000080402349086047204860002120488160B4
:102F100040F2E731C160002101618161FFF787F86C
:102F200008B1FDF758FB00200790089007A9184842
:102F3000FEF788FD08B1FDF74EFB602000900020F1
:102F4000019002900490002269461148FEF7EDFFBF
:102F500008B1FDF740FB042269460D48FEF7E5FF86
:102F600008B1FDF738FB082269460948FEF7DDFF86
:102F700008B1FDF730FB0C2269460548FEF7D5FF86
:102F800008B1FDF728FB0248FEF7A4FF09B000BD19
:102F90000405002000B587B0002003900490059040
:102FA00006900190029015481549086040F2CF2024
:102FB000486000211248816040F2E731C160002181
:102FC000016180218161FEF77FFD08B1FDF703FB00
:102FD0004FF48050039003A90948FEF73DFE08B165
:102FE000FDF7F9FA00200190029001A90448FEF7CC
:102FF00029FD08B1FDF7EFFA07B000BD000400405D
:103000004C05002000BFFEE700BFFEE794B00020A3
:103010001290139011900D900E900F9010900C90B4
:103020000B900A90099000BF00BF00BF00BF00BF17
:1030300000BF824683460890FD48FE4BFE4A0021B1
:103040000090FE4800F00AFCF948FA4BFC4A0021C7
:103050000090FC4800F002FCF548FB4BFB4A0021C5
:103060000090FB4800F0FAFBF748FA4BFA4A0021BF
:103070000090FA4800F0F2FBF348F64BF84A0021C2
:103080000090F84800F0EAFBEF48F24BF64A0021C6
:103090000090F64800F0E2FBEB48EE4BF44A0021CA
:1030A0000090F44800F0DAFB00BF00231A4611A993
:1030B000F148006803F03CFA10B1012003F0E2F996
:1030C00000231A46ED49EE48006803F031FA10B1CA
:1030D000012003F0D7F900231A46EA49EA480068BC
:1030E00003F026FA10B1012003F0CCF900231A46B0
:1030F000E649E748006803F01BFA10B1012003F02D
:10310000C1F900231A46E349E348006803F010FAC6
:1031100010B1012003F0B6F900231A460CA9DF48CC
:10312000006803F005FA10B1012003F0ABF90023A9
:103130001A460BA9DA48006803F0FAF910B1012029
:1031400003F0A0F900231A460AA9D648006803F044
:10315000EFF910B1012003F095F900231A4609A9EF
:10316000D148006803F0E4F910B1012003F08AF9B6
:10317000CE480078012809D1CD480078C82805D16B
:10318000CC49119808600020C8490870CA49C9484C
:10319000006806F06BFE07D8C749C648006806F00D
:1031A000D1FEC44908600CE00021C248006806F066
:1031B0005DFD06D2C049BF48006806F085FBBD49E9
:1031C0000860BB480078C82806D1BA481199006841
:1031D00006F0B8FEB94908600021B948006806F059
:1031E000A9FC06D0B349119808600020B3490860D3
:1031F00022E0B0481199006806F0A4FEAF490860CB
:1032000006E0AD49AD48006806F05EFBAB490860DA
:10321000AC49AA48006806F029FDF2D306E0A649A9
:10322000A648006806F08EFEA4490860A649A34897
:10323000006806F01BFEF2D3A448002102687F4814
:1032400000F0F4F98246A248002102687D4800F0AF
:10325000EDF983469948002102687D4800F0E6F9BF
:1032600008909C48007801287ED100200890CDF875
:103270001CA0CDF818B09148006880F00040019083
:1032800006F0F6FA8046944A944B05F0E1FF0646B4
:103290000022934B05F01AFE044605F029FD02902A
:1032A00004F020FA0390069906F014FD0590834877
:1032B000006880F00040019006F0DAFA0446864A81
:1032C000864B05F0C5FF06460022854B05F0FEFD46
:1032D000804605F00DFD029001F062FB0390079916
:1032E00006F0F8FC0490059906F02CFE824673481F
:1032F000006880F00040019006F0BAFA8046764AF5
:10330000764B05F0A5FF06460022754B05F0DEFD65
:10331000044605F0EDFC029001F042FB0390069993
:1033200006F0D8FC05906548006880F000400190E8
:1033300006F09EFA8046684A684B05F089FF04460D
:103340000022674B05F0C2FD064605F0D1FC029055
:1033500004F0C8F90390079906F0BCFC04900599A5
:1033600006F0B2FA834600E000E000BF594650463E
:1033700006F0AAFA0646089906F0A6FA054650484D
:103380000168284606F0A0FA04465648016820461F
:1033900006F09AFA0D905946504606F0D3FD0646BF
:1033A000089906F091FA054645480168284606F056
:1033B0008BFA04464B480168204606F085FA0E90C9
:1033C0005946504606F080FA0646089906F0BAFDBE
:1033D00005463B480168284606F0B4FD04464148CE
:1033E0000168204606F0AEFD0F905946504606F0A3
:1033F000A9FD0646089906F0A5FD05463048016876
:10340000284606F09FFD044636480168204606F02F
:1034100099FD10901948006880F0004739460F4820
:103420000D9A00F003F9044606F022FA5CE0000071
:103430000000484300007A44680000201002002089
:10344000740000207002002000004842800000202C
:10345000D002002000C079448C00002030030020FE
:103460009800002090030020A4000020F00300201A
:10347000B0000020500400200C010020DC000020DF
:1034800010010020E000002014010020E4000020D2
:1034900018010020E80000201C010020200100206D
:1034A00024010020280100202C010020BC00002065
:1034B000EC000020C00000200000B443C400002045
:1034C000D4000020000034C300003443C8000020B2
:1034D000CC000020BE000020112D4454FB210940E7
:1034E00000806640D800002021F00041054605F02C
:1034F00045FE80B2ADF848004248006880F00047C1
:10350000394641480E9A00F091F8044606F0B0F9A9
:1035100021F00041054605F031FE80B2ADF84A00C9
:103520003A48006880F00047394639480F9A00F061
:103530007DF8044606F09CF921F00041054605F0AF
:103540001DFE80B2ADF84C003248006880F00047A4
:1035500039463148109A00F069F8044606F088F9B7
:1035600021F00041054605F009FE80B2ADF84E009D
:1035700000200BE012A931F81010B1F57A7F04DBBE
:1035800040F2E73112AA22F81010401C0428F1DBA7
:103590000021224ABDF848000123CDE90121009015
:1035A00002221F49084600F051FB0421164ABDF8CB
:1035B0004A00CB01CDE9012100908A011949084652
:1035C00000F044FB0821124ABDF84C00CB02CDE9C3
:1035D000012100908A021449084600F037FB0C21B3
:1035E0000D4ABDF84E004FF40043CDE90121009093
:1035F0005A100B49084600F029FB0A2004F0E4FAAF
:1036000053E50000E000002090030020E4000020CB
:10361000F0030020E80000205004002030030020C8
:10362000000C014000080140001001402DE9F0416C
:1036300004460E4615462946606A06F07BFA03D01A
:1036400001208249087065628048007860B1608816
:103650007F490988884204DD002060807B4908702A
:1036600002E06088401C608014B90020BDE8F08151
:10367000A16DE165616DA1652562216B6163E16A00
:103680002163E662D4E90B0106F01EF98046616B06
:1036900006F01AF907466F4906F08AF9A062284633
:1036A000A16A06F04FFC60656848007840BB606D19
:1036B00006F0DEF821F0004107460022664B05F0D7
:1036C000C5FE0CD2608850B90021606A06F032FA5B
:1036D00005D0606920616088401C608016E04FF072
:1036E0007E51206906F026FA0BD059480088142133
:1036F00090FBF1F06188884203DD6088401C6080A7
:1037000004E04FF07E502061002060802078002887
:1037100051D1D4E9150106F015FCA0642169606857
:1037200006F0D8FA0746616D06F0D4FAE063616DE1
:10373000A06806F0CFFA0746216C06F0C5F82064B1
:10374000E16C2165A16CE164A16CE06806F0C2FA4D
:103750006064E169206C06F089FB02D2E0692064B4
:103760000BE0E06980F000473846216C06F07EFBF4
:1037700003D2E06980F000402064D4E90F0106F034
:10378000A3F80746616C06F09FF8A063A169A06BDF
:1037900006F06CFB02D2A069A06355E0A06980F03E
:1037A00000473846A16B06F061FB4DD2A06980F05E
:1037B0000040A06348E02078012845D1D4E91501F4
:1037C00006F0C0FB0746616806F084FAE063616DAD
:1037D000A06806F07FFA2064E16C2165A16CE164C9
:1037E0004FF08040A16D06F075FA8046616D06F0DD
:1037F0009FFB0746E16D06F067F8A064A16CE068E6
:1038000006F068FA6064D4E90F0106F05DF88046BE
:10381000616C06F059F80746A16B06F055F8A063F5
:10382000A169A06B06F022FB02D2A069A0630BE0A5
:10383000A06980F000473846A16B06F017FB03D261
:10384000A06980F00040A063A06B0FE73800002063
:1038500040000020000040400000594070B5049C2A
:1038600000B102B970BD017015684560556885608A
:103870009568C5608361C46100260665C664866478
:10388000866346640664C663C66586654665044D00
:103890002D68456146630663C66200BFE2E700002B
:1038A0003C00002001460148405C7047D4010020E4
:1038B000002004E00021034A1154411CC8B2092829
:1038C000F8DB7047D401002038B504460120009091
:1038D0000020214948700120009037E0BDF8000029
:1038E000204028B1012291021C48FDF76FF805E045
:1038F00000224FF480611948FDF768F80122082181
:103900001748FDF763F80A2001F03AF90022082170
:103910001348FDF75BF80A2001F032F90122082173
:103920000F48FDF753F810210D48FDF747F830B167
:1039300009484078BDF80010084307494870BDF8B1
:1039400000004FF6FF7101EA40000090BDF8000052
:10395000FF28C3DD38BD0000D4010020000801406D
:10396000000C014010B5FFF7A3FF00F085F80F48E9
:10397000C0780E49097940EA01200D4908800024E9
:103980000FE00C4810F81400401E012101FA00F06D
:1039900007490988084010B9601CC0B210BD601CFE
:1039A000C4B2102CEDDB0020F8E70000D4010020A9
:1039B000420000204600002010B500224FF40061B4
:1039C0001448FDF703F8102001F0DAF80120FFF7A2
:1039D0007BFF4320FFF778FF0020FFF775FF0120F2
:1039E000FFF772FF0020FFF76FFF0020FFF76CFF6B
:1039F0000020FFF769FF0020FFF766FF0020FFF7B8
:103A000063FF0122D1020348FCF7E0FF102001F020
:103A1000B7F810BD0008014010B500224FF4006156
:103A20001448FCF7D3FF102001F0AAF80120FFF79B
:103A30004BFF4320FFF748FF0020FFF745FF002022
:103A4000FFF742FF5A20FFF73FFF5A20FFF73CFFE6
:103A50005A20FFF739FF5A20FFF736FF5A20FFF7A9
:103A600033FF0122D1020348FCF7B0FF102001F020
:103A700087F810BD000801401CB50020019001200E
:103A800000900022C1022848FCF7A0FF27490878CF
:103A9000FFF71AFF25494878FFF716FF022001902B
:103AA00037E00120009028E0012208212048FCF79F
:103AB0008DFF002208211E48FCF788FF0A2001F034
:103AC0005FF8012208211A48FCF780FF10211848EE
:103AD000FCF774FF50B117489DF80410405CBDF826
:103AE0000010084313499DF804208854BDF80000D5
:103AF0004FF6FF7101EA40000090BDF80000FF287A
:103B0000D2DD0A2001F03CF89DF80400401CC0B250
:103B100001909DF804000928C3DB0122D10202486C
:103B2000FCF754FF1CBD00000008014044000020C9
:103B3000000C0140D401002010B500F00DF800F099
:103B40000BF800F009F8FFF737FF00F029F800F054
:103B500055F8FFF761FF10BD10B500224FF400616A
:103B60000E48FCF733FF102001F00AF80120FFF7A0
:103B7000ABFE4220FFF7A8FE0020FFF7A5FE0020C5
:103B8000FFF7A2FE0020FFF79FFE0122D1020348AB
:103B9000FCF71CFF102000F0F3FF10BD00080140EF
:103BA00010B500224FF400611348FCF70FFF01200D
:103BB000FFF78AFE4420FFF787FE0020FFF784FE10
:103BC0000120FFF781FEEE20FFF77EFE0020FFF7C9
:103BD0007BFE0020FFF778FE0020FFF775FE002037
:103BE000FFF772FE0122D1020348FCF7EFFE10201E
:103BF00000F0C6FF10BD00000008014010B5002213
:103C00004FF400610E48FCF7E1FE102000F0B8FF11
:103C10000120FFF759FE4D20FFF756FE0020FFF769
:103C200053FE0020FFF750FE0120FFF74DFE01225A
:103C3000D1020348FCF7CAFE102000F0A1FF10BD1E
:103C40000008014010B5FDF773FB10BD2DE9F047EA
:103C500082460E4617469846DDE908590A9C4FF001
:103C60008041D9F8380006F001F91ED21CB92F485E
:103C7000006845630EE0042C03D12C48006885637E
:103C800008E0082C03D129480068C56302E02748F2
:103C900000680564002239465046FCF797FE012271
:103CA00041463046FCF792FE3DE04FF04041D9F8E6
:103CB000380005F0DBFF1ED21CB91C4800684563C4
:103CC0000EE0042C03D119480068856308E0082C35
:103CD00003D116480068C56302E014480068056413
:103CE000012239465046FCF771FE0022414630461B
:103CF000FCF76CFE17E024B900200C490968486302
:103D000011E0042C04D100200849096888630AE006
:103D1000082C04D1002005490968C86303E000208D
:103D2000024909680864BDE8F08700000405002026
:103D300008B508490968C9084FF47A72B1FBF2F175
:103D40004143009100BF00BF00994A1E0092002924
:103D5000F9D108BD4001002000BF012002F092FB14
:103D6000FBE710B54FF0E020006904F017FD0128D3
:103D700001D004F0CDF810BD00B58FB0282105A802
:103D8000FCF707FB14216846FCF703FB01200590B4
:103D900000040690002007900120099002200C905A
:103DA000C1030D914FF4E0110E9105A8FDF716FC2B
:103DB00008B1FCF710FC0F200090022001900020B9
:103DC00002904FF480600390002004900221684626
:103DD000FDF7BEFA08B1FCF7FEFB0FB000BD70475F
:103DE00010B50248FDF7BFFF10BD0000940500208C
:103DF00010B50248FDF7B7FF10BD00004C050020CC
:103E000010B502681C4B984208D0B0F1804F05D025
:103E10001A4B984202D01A4B984203D122F07002FA
:103E20004B681A43144B984208D0B0F1804F05D02C
:103E3000124B984202D0124B984203D122F44072A6
:103E4000CB681A4322F080034C6943EA0402026003
:103E50008B68C3620B688362074B984201D10B6980
:103E6000036301234361036903F001031BB1036989
:103E700023F00103036110BD002C01400004004049
:103E80000008004030B501F01F05012404FA05F3D5
:103E9000046A9C430462046A01F01F0502FA05F5F6
:103EA0002C43046230BD30B50C46816821F47F415B
:103EB00042EA032525432943816030BD0A468168D3
:103EC00021F0700142F00703194381607047000040
:103ED00030B5026A056A25F0010505624368846908
:103EE00024F0700424F003040D682C4322F0020235
:103EF0008D682A430D4DA84206D100BF22F008026A
:103F0000CD682A4322F00402084DA84207D123F4C9
:103F1000807323F400734D692B438D692B434360F9
:103F200084614D684563026230BD0000002C014091
:103F300030B5026A056A25F0100505624368846998
:103F400024F4E04424F440740D6844EA052422F08B
:103F500020028D6842EA05120E4DA84207D100BF2B
:103F600022F08002CD6842EA051222F04002094D9B
:103F7000A84209D123F4806323F400634D6943EA26
:103F800085038D6943EA8503436084614D688563D9
:103F9000026230BD002C014030B5026A056A25F48A
:103FA000807505624368C46924F0700424F003043A
:103FB0000D682C4322F400728D6842EA05220F4DF1
:103FC000A84207D100BF22F40062CD6842EA052270
:103FD00022F48062094DA84209D123F4805323F4CE
:103FE00000534D6943EA05138D6943EA05134360A5
:103FF000C4614D68C563026230BD0000002C014001
:1040000030B5036A056A25F4805505624468C269C3
:1040100022F4E04222F440720D6842EA052223F4C1
:1040200000538D6843EA0533064DA84204D124F4B9
:1040300080444D6944EA85144460C2614D6805645A
:10404000036230BD002C014030B50B461446026AB5
:10405000056A25F001050562816921F0F00141EA58
:10406000041122F00A021A438161026230BD30B5A8
:104070000B461446026A056A25F01005056281693F
:1040800021F4704141EA043122F0A00242EA031215
:104090008161026230BD70B50546284603F0A2FA80
:1040A000044614B1D4E90010884770BD00BFFEE794
:1040B000490050EAC12018BF04204A0D18BF40F043
:1040C000010040F2FF72B2EB515F08BF40F0020006
:1040D000012808BF052070474100080218BF0420CE
:1040E0000A0E18BF40F001004FF07F4232EA010192
:1040F00008BF40F00200012808BF052070470000FB
:1041000002480068C0F30220704700000CED00E098
:1041100010B5002804DB0A07130E054A135406E005
:104120000A07140E034A00F00F031B1FD45410BDDE
:1041300000E400E018ED00E0EFF3058070472DE9A2
:10414000F0414F1E00EBC7010446D1E900011546BE
:104150001E4637F006020DD02A46334605F078F8A1
:104160007F1E04EBC703D3E9002304F0F3FD37F00F
:104170000602F1D1022F25D0042F13D0062F18BF2D
:10418000BDE8F0812A46334605F062F8D4E90A23F7
:1041900004F0E0FD2A46334605F05AF8D4E9082336
:1041A00004F0D8FD2A46334605F052F8D4E9062338
:1041B00004F0D0FD2A46334605F04AF8D4E904233A
:1041C00004F0C8FD2A46334605F042F8D4E902233C
:1041D00004F0C0FD2A46334605F03AF8D4E900233E
:1041E000BDE8F04104F0B6BD012205F052BF04F075
:1041F000B1BD002213461046114604F067BE000010
:10420000024A0020110705F044BF000001FDFFFF36
:10421000012105F06CBF0021084605F0C9BB6FF015
:104220005E01080705F063BF2DE9F04D0D46144609
:104230004FF07F41B1EB440F9EBF4FF0FF3129603B
:10424000BDE8F08D4FF0004040EA0421C4F3C750B0
:10425000783810F01F024A4B4FEA601CC2F120066A
:104260007B44C4F3C750A0F178004FEA601003EB21
:10427000800053F82C3008BFD0E901C612D0D0F826
:1042800004C093402CFA06F73B4387680CFA02FC03
:1042900027FA06F8C06807FA02F2F0404CEA080C68
:1042A00042EA0006A3FB0132ACFB01C0A6FB0161A0
:1042B00001EB0C068E4234BF4FF0010C4FF0000CA6
:1042C000C1186144BCF1000F02D0814202D903E061
:1042D000814201D2012000E00020104400F12002C0
:1042E0004FEA92188006CA0C40EA42304F03C5F8E4
:1042F000008005F08FFC8246384605F0A3FC6FF085
:10430000120105F0F4FE0746304605F09BFC6FF005
:10431000250105F0ECFE83463946504605F0D4FAF7
:10432000594605F0D1FA00F500666FF30B065146C9
:10433000304605F007FE394605F004FE594605F003
:10434000F7FD104905F0C6FC07460F49304605F059
:10435000C1FC394605F0B8FA07460C49304605F06D
:10436000B9FC394605F0B0FA14F0004F08BFBDE8BB
:10437000F08DC8F1805180F000402960BDE8F08DDB
:10438000EC6D0000DB0FC92F22AAFD290000C92F08
:104390002DE9F04D8D4F21F0004A86B005460C46C0
:1043A000BA452ADBAAEB070028430AD08848824591
:1043B00001DC1AD1CDB106B02846BDE8F04DFFF7BB
:1043C00013BF844A844B284604F042FF07460E463A
:1043D000824A834B2846214604F03AFF06B03A460B
:1043E0003346BDE8F04D04F0B5BC0120FCF700F801
:1043F00006B0BDE8F04DFFF7FCBE7A48824542DAD0
:10440000BAF1795F0BDA2846FFF752FE042808BF9D
:10441000FFF7F6FE284606B02146BDE8F08D2A4695
:104420000B46104604F014FF834602466E480E46C3
:104430000B4606217844FFF782FE5A46334604F0C5
:1044400007FF804669488A465A4633460421784425
:10445000FFF775FE5A46334604F0FAFE00223B464B
:1044600004F078FC02460B464046514604F02EFD0F
:104470002A46234604F0ECFE06B02A462346BDE851
:10448000F04D04F067BC284624F0004100223D4670
:104490003B4605F011F84FF0FF3205F0FAFD0646F5
:1044A000024653480F460B4606217844FFF747FE65
:1044B00032463B4604F0CCFECDE900014D48324681
:1044C0003B4604217844FFF73AFE32463B4604F06F
:1044D000BFFE00222B4604F03DFC8346029130468D
:1044E000394603F0C3F9804643480D46504517DC72
:1044F000DDE900015A46029B04F0E8FC42462B46E7
:1045000004F0A6FE42462B4604F024FC012205F0EE
:10451000C0FD304A304B05F0C1F8304A304B4CE01A
:104520004FF0000A52460B46404604F013FCCDE91A
:10453000031052462B461046194604F089FE3246B7
:104540003B4604F0B9FFDDE9033204F0BFFC064648
:104550000F46DDE900015A46029B04F0B7FC834692
:10456000009101223046394605F093FD194A1A4B55
:1045700004F0A2FF06460F4601224046294605F0F8
:1045800088FD5A46009B04F063FE32463B4605F028
:1045900085F806460F4601225046294605F079FD6A
:1045A0000E4DDFF858802A46434604F085FF324618
:1045B0003B4604F081FF2A46434604F07DFF002C71
:1045C000D8BF81F0004106B0BDE8F08D0000F03F9B
:1045D0000000F07F075C143326A6913C182D44544C
:1045E000FB21F93F0000E03F286B00003E6B00001C
:1045F000B26A0000C86A00003333EF3FFB21E93F95
:104600002DE9F84F04460D4621F000400091734912
:10461000814211DC7249884201DC06D12CB120466E
:104620002946BDE8F84FFFF7DFBD6E48002DCCBF2F
:104630006D496E49BDE8F88F6D49814211DD6D49C4
:104640008142D8BF4FF0FF366DDD20462946FFF787
:104650002FFD042808BFFFF7D3FD20462946BDE8FB
:10466000F88F6549654F25F00045814233DD644987
:10467000814219DD002632464FF08043204629460C
:1046800004F068FB80468A4601222046294605F050
:1046900000FD00223B4605F001F84246534604F077
:1046A00015FC04460D463EE001260022BA463B4674
:1046B0002046294604F04EFB80460F460022534612
:1046C0002046294604F0EAFF42463B4604F0FEFB42
:1046D00004460D4627E04B4981421BDDDFF828A147
:1046E0000226002253462046294604F0B1FD00224E
:1046F0003B4604F02FFB80460F46002253462046DF
:10470000294604F0CBFF42463B4604F0DFFB04465B
:104710000D4608E0032622462B4600203B4904F0C4
:10472000D5FB04460D4622462B461046194604F09A
:104730008FFD8B46824602460B4604F089FD0746F4
:104740000246334888460B4606217844FFF7F7FCBB
:1047500052465B4604F07CFD82462E488B463A4624
:10476000434605217844FFF7EAFC3A46434604F005
:104770006FFD02460B46002E504659460CDA04F0F7
:10478000E9FA22462B4604F063FD01B022462B468F
:10479000BDE8F04F04F090BE04F0DCFA22462B4650
:1047A00004F056FD1C4A7A4402EBC603D3E9002309
:1047B00004F074FF22462B4604F070FF174A7A4437
:1047C00002EBC603D3E9002304F076FE009A002A28
:1047D000B8BF81F00041BDE8F88F00000000104430
:1047E0000000F07F182D4454FB21F93FFB21F9BF55
:1047F0000000DC3F0000203E0000F33F0000F03FDF
:104800000000E63F008003400000F83F0000F0BFDA
:10481000CA6800008868000026680000EE67000093
:104820002DE9F04D9446CCF1000423F000464CEA0B
:104830000404524F46EAD4749A46884621F0004256
:10484000BC4206D8454240EA050442EAD474BC4260
:1048500004D9BDE8F04D6246FFF7C9BCAAF1405546
:10486000A5F17F6555EA0C040BD0022404EAAA7472
:10487000434DDFF810E144EAD87452EA000B04D04B
:104880000CE0BDE8F04DFFF7BBBE002C14BF012CBF
:10489000BDE8F08D022C30D0032C32D056EA0C0B40
:1048A0000AD0BE4220D1BA4209D126F0804622F079
:1048B00080423346114617E000291ADB25E0DFF875
:1048C000C8B0FB44002C04BFDBE90001BDE8F08D5B
:1048D000012C02BFDBE9000181F00041BDE8F08D51
:1048E000022C0AD0032C0CD0BA4212D1B8F1000F1E
:1048F0000BDA23482549BDE8F08D28462449BDE858
:10490000F08D28467146BDE8F08D1D482149BDE86F
:10491000F08D921B12153C2AC4BF19481D490EDCAC
:10492000BAF1000FBEBF12F13C0F0020014606DBBA
:10493000624604F0CBFA21F00041FFF761FE002C43
:1049400008BFBDE8F08D012C04BF81F00041BDE837
:10495000F08D114A114B022C07D004F09FFE2A461D
:10496000BDE8F04D0A4B04F099BE04F097FE2A46CC
:10497000BDE8F04D064B04F09FBD00000000F07F45
:10498000182D4454FB2109C082670000FB21F9BFA8
:10499000FB210940FB21F93F075C143326A6A13C0B
:1049A0002DE9F843044602464F486946B0EB420FF2
:1049B00009D94FF0E640B0EB420F94BF00204FF012
:1049C000FF30009030E0494B22F00040834271D923
:1049D0004749204605F07EF905F07AFA804605F051
:1049E000DDF800F0030000904249404605F072F9FE
:1049F00005464149404605F06DF906463F494046A7
:104A000005F068F907463E49404605F063F921463E
:104A100005F08EFA394605F095FA314605F092FA1E
:104A2000294605F08FFA04462546009C002C45DBFC
:104A3000294614F0010F08461CD005F04BF9064634
:104A4000304905F047F9304905F072FA314605F072
:104A500041F92E4904F038FF314605F03BF929466B
:104A600005F038F9294604F02FFF14F0020F1CD08E
:104A7000BDE8F88305F02EF90546254905F02AF929
:104A8000244904F021FF294605F024F9224904F0C5
:104A90001BFF294605F01EF94FF07E5104F014FF6C
:104AA00014F0020F08BFBDE8F88380F00040BDE8B5
:104AB000F883FFE71046FFF7B7FBB4E76800B0F1F3
:104AC0007F4F3CBF4FF07E50BDE8F88307D14FF0D9
:104AD0000100FBF78DFCBDE8F843FFF79CBB2846BF
:104AE000BDE8F843FFF794BBB61F927E490E4946D6
:104AF00083F9223F1A61342C0020A23300A0FD3933
:104B00000000C93F336D4C39DA82083CA0AA2ABEA6
:104B1000B93AB2BACA9F2A3DDDFFFFBE2DE9F04186
:104B20000446E07800F0C006E07800F03F056078C9
:104B300000F0010098B1EF102846E91705EB51711C
:104B4000C910A5EBC101491C01F0FF080B48006822
:104B500020B10A48414602683846904700BF607855
:104B600000F0080030B10548406818B1B011034AA0
:104B7000516888470020BDE8F0810000C401002092
:104B800010B5084B5968084B1B68084CB3FBF4F38D
:104B900003FB00F200BF034B5B685B1A9342FAD33E
:104BA00010BD0000001000E04001002040420F0056
:104BB00038B5044664B120208DF8000028208DF817
:104BC000010030208DF8020038208DF8030004E049
:104BD000A32204216846FBF7D4FB6A46042140F671
:104BE0009E2001F001FC00F0A9FF38BD3EB504464F
:104BF00002208DF80000CA208DF80100E3208DF816
:104C0000020009208DF803006A460421682001F0A3
:104C1000EBFBA3208DF8000004F0400048B1C02059
:104C20008DF80100C8208DF80200C2208DF8030025
:104C300006E0A3208DF801008DF802008DF8030036
:104C400004F4C07048B1C4208DF80400CC208DF865
:104C50000500C6208DF8060006E0A3208DF80400AC
:104C60008DF805008DF80600A3208DF807008DF85B
:104C700008008DF809006A460A2140F6A72001F0D5
:104C8000B3FB04F0030018B120208DF8000002E00F
:104C9000D8208DF800006A46012140F6B62001F0C8
:104CA000A3FB04F0200018B1012000F0ADF802E0F1
:104CB000002000F0A9F804F4C07008B304F4807078
:104CC00060B1B2208DF800008B208DF80100B62075
:104CD0008DF802009B208DF803000BE0B0208DF8CA
:104CE000000080208DF80100B4208DF80200902093
:104CF0008DF803006A46042140F6A22001F074FBFF
:104D000004F0010020B3F8208DF800006A4601216C
:104D10004FF40B6001F068FBFA21072000F000FB64
:104D2000072000F0C7FA012000F0E7FA642000F045
:104D3000C7FB4FF4FA7000F0D6FBC821304800F0F2
:104D400077FA282000F090FA0A2000F0A0FA08E094
:104D5000D8208DF800006A4601214FF40B6001F065
:104D600043FB04F0020018B1D9208DF8000002E0E6
:104D7000D8208DF800006A46012140F23D7001F014
:104D800033FB04F0040018B1012000F069F802E0E0
:104D9000002000F065F804F0100018B10120FFF7C2
:104DA00007FF02E00020FFF703FF44F00800154969
:104DB000488100F0C3FE00201249887304F04000CF
:104DC00018B10846807B801D887304F4C07020B140
:104DD0000C48807B801D0B49887304F0140020B1BF
:104DE0000848807B10300749887304F0030020B125
:104DF0000448807B001D0349887300203EBD0000ED
:104E000009E3CA02C40100203EB504466CB10EA1FC
:104E1000D1E900208968CDE9002002916A46092184
:104E20004FF4976001F0E0FA3EBD0AA2D2E900100B
:104E30009268CDE9010200916A4609214FF497601A
:104E400001F0D2FAF0E70000B8AAB38DB4980D359E
:104E50005D000000B8AAAAAAB088C3C5C7000000B8
:104E600038B5044664B1C0208DF80000C2208DF82A
:104E70000100C4208DF80200C6208DF8030004E074
:104E80008B2204216846FBF77CFA6A46042140F62F
:104E9000982001F0A9FA00F051FE38BD10B5C823E2
:104EA0004FF48062024940F6F63000F09BFC10BDE2
:104EB000C0A100082DE9F04F8DB007468846154681
:104EC0009946DDE9166B0024002030806D49887B0F
:104ED0005A4605A900F06CFD18B1601E0DB0BDE882
:104EE000F08F6848807A00F01400002867D09DF8A1
:104EF000140000069DF8151040EA01409DF81610B8
:104F000040EA01209DF81710084328609DF818001A
:104F100000069DF8191040EA01409DF81A1040EA79
:104F200001209DF81B10084368609DF81C000006D6
:104F30009DF81D1040EA01409DF81E1040EA012036
:104F40009DF81F100843A8609DF8200000069DF8FA
:104F5000211040EA01409DF8221040EA01209DF80E
:104F600023100843E86004F11000C4B2286800145C
:104F70000190686800140290A86800140390E86823
:104F80000014049001984043029901FB0100039929
:104F900001FB0100049901FB010ABAF1706F02DB09
:104FA000BAF1885F05DD00F0C9FD00203080401EA9
:104FB00094E7B6F9000040F48070308000BF3148BB
:104FC000807A00F0400020B305A9601C085C095DF0
:104FD00040EA012000B2A8F8000005A9E01C095C25
:104FE00005AAA01C105C41EA002000B2A8F802004B
:104FF00005A9601D095C201D105C41EA002000B27B
:10500000A8F80400A01DC4B2B6F9000040F00800E2
:1050100030801C48408900F4C07008B305A9601CAA
:10502000085C095D40EA012000B2388005A9E01C57
:10503000095C05AAA01C105C41EA002000B278803F
:1050400005A9601D095C201D105C41EA002000B22A
:10505000B880A01DC4B2B6F9000040F070003080E6
:105060000848807A00F0030018B105A90819FFF775
:1050700055FD00BFFBF7B0FCC9F8000000BF0020E1
:105080002CE70000C401002030B585B0044616A20C
:1050900007CA02AB07C3C82C03DD4FF0FF3005B0D1
:1050A00030BDC82090FBF4F0401E85B2280A8DF870
:1050B0000000E8B28DF801006A46022140F2162095
:1050C00001F092F910B14FF0FF30E8E702AA0C218D
:1050D00040F6C12001F088F910B14FF0FF30DEE753
:1050E000044884810020DAE7FEF2ABC4AAF1DFDFD6
:1050F000BBAFDFDFC401002010B586B0044647A077
:105100000068039046A00068029046A000680190E5
:1051100045A00068009004F0030003A9085C8DF826
:10512000140003A8C4F3C101405C8DF8150003A866
:10513000C4F38111405C8DF8160004F0030002A94D
:10514000085C8DF8100002A8C4F3C101405C8DF822
:10515000110002A8C4F38111405C8DF8120005AA69
:10516000032140F2264001F03FF918B14FF0FF3023
:1051700006B010BD04AA032140F22A4001F034F920
:1051800010B14FF0FF30F3E70198059000980490BC
:1051900004F0040058B19DF8140040F001008DF8AF
:1051A00014009DF8100040F001008DF8100004F08C
:1051B000200058B19DF8150040F001008DF8150051
:1051C0009DF8110040F001008DF8110004F480708A
:1051D00058B19DF8160040F001008DF816009DF8BA
:1051E000120040F001008DF8120005AA03214FF4CF
:1051F000886001F0F9F810B14FF0FF30B8E704AA69
:10520000032140F2314001F0EFF810B14FF0FF30D0
:10521000AEE7064804810020AAE700004CCD6C00F0
:105220000CC92C003656760026466600C4010020C4
:10523000F8B505460E464FF47A7095FBF0F000FB8A
:1052400006F4200E8DF80000200C8DF80100200AD5
:105250008DF80200E0B28DF803006A4604214FF495
:10526000AE7001F0C1F8F8BD38B50446052094FBD6
:10527000F0F084B220128DF80000E0B28DF8010049
:105280006A4602214FF4AD7001F0AEF838BD38B572
:105290000446052094FBF0F084B220128DF8000043
:1052A000E0B28DF801006A4602214FF4AC7001F0C3
:1052B0009BF838BD38B504460020009004F001008A
:1052C00020B19DF8000040F03000009004F0020092
:1052D00020B19DF8000040F00C00009004F00400A4
:1052E00020B19DF8000040F0030000906A460121C3
:1052F0004FF4A47001F078F838BD38B50446012C9D
:1053000001DA012402E0042C00DD0424601EC0B296
:1053100000906A46012140F24F1001F065F838BD57
:105320002DE9FC4706460F4606F0070010B1B7F519
:10533000C86F03DD4FF0FF30BDE8FC87384604F04E
:1053400081FC8146594904F033FB8046684600F0F1
:1053500093F99DF80000022806D0042816D00828EA
:1053600026D0102848D135E04FF08D41404604F05A
:10537000B1FC814604F02EFC84B24D49404604F055
:10538000A9FC814604F026FC85B238E04FF08C4140
:10539000404604F09FFC814604F01CFC84B2454961
:1053A000404604F097FC814604F014FC85B226E0E8
:1053B0004FF08B41404604F08DFC814604F00AFC1E
:1053C00084B23D49404604F085FC814604F002FC6D
:1053D00085B214E04FF08A41404604F07BFC8146E0
:1053E00004F0F8FB84B23549404604F073FC814672
:1053F00004F0F0FB85B202E04FF0FF309CE700BF05
:1054000020128DF80400E0B28DF8050028128DF806
:105410000600E8B28DF8070006F00100A0B101AA6D
:1054200002214FF4EA7000F0DFFF10B14FF0FF30BF
:1054300082E70DF1060202214FF4927000F0D4FFD2
:1054400010B14FF0FF3077E706F00200A0B101AADB
:1054500002214FF4EC7000F0C7FF10B14FF0FF30A5
:105460006AE70DF1060202214FF4947000F0BCFFD0
:1054700010B14FF0FF305FE706F00400A0B101AAC1
:1054800002214FF4EE7000F0AFFF10B14FF0FF308B
:1054900052E70DF1060202214FF4967000F0A4FFCE
:1054A00010B14FF0FF3047E7002045E700004843C8
:1054B000000040460000C045000040450000C044D8
:1054C00038B50446052094FBF0F085B228128DF81B
:1054D0000000E8B28DF801006A4602214FF4EF7037
:1054E00000F082FF38BD38B50446052094FBF0F08B
:1054F00085B228128DF80000E8B28DF801006A46E6
:1055000002214FF4ED7000F06FFF38BD70B5054615
:10551000284600F00FF80446E81C00F00BF844EAB7
:10552000C00084B2A81D00F005F844EA801084B2DF
:10553000204670BD014691F90020002A01DD0020BF
:105540001EE091F90020002A01DA042018E091F908
:105550000120002A01DD012012E091F90120002A3A
:1055600001DA05200CE091F90220002A01DD022079
:1055700006E091F90220002A01DA062000E0072067
:1055800070470000FBF7D4FDFEF7F6FBFDF7CEFBFE
:10559000FDF7ACFCFDF7FEFCFDF78AFC1648006841
:1055A00040F08070144908600020144948600846A3
:1055B000006840F0010008601148FCF7DBFA114870
:1055C000FCF70EFB00210E48FCF77CFD04210C4883
:1055D000FCF778FD08210A48FCF774FD0C21084807
:1055E000FCF770FDFEF7A8FA00F05CFFFDF7F6FA95
:1055F00000F06EFF00BFFEE7FCED00E0001000E0F1
:10560000040500204C05002070B50446002624F057
:105610000104184890F8240008B1002070BD154816
:10562000807A10B94FF0FF30F8E71248057C807A95
:105630002040104908740846007CA04202D04FF078
:10564000FF3600E0002614B90A48007D18B1012099
:1056500001F0F0FF02E0002001F0ECFF3CB100F0AF
:105660006DFA20B1034805744FF0FF30D6E730469D
:10567000D4E700000000002001461148407A30B114
:10568000012807D0022808D003280CD108E0022006
:1056900008700BE00420087008E00820087005E09E
:1056A0001020087002E04FF0FF30704700BF044840
:1056B000C07C18B108784006000E08700020F4E79E
:1056C0000000002010B586B0044680208DF8100040
:1056D0004000012104AACDE9002102903F48006862
:1056E000427D3E484068017801233D48FBF71CFCA1
:1056F00018B14FF0FF3006B010BD6420FAF76EFF0E
:1057000000208DF810004FF48070012104AACDE92B
:105710000021029031480068427D3048406801789D
:1057200001232F48FBF700FC10B14FF0FF30E2E7F8
:1057300000212A48C174FF218172FF202749087285
:10574000FF2126484172C1724FF6FF71C181FF21CE
:10575000017481740121017380F82210002180F806
:105760002310417501751630016041608160163863
:1057700080F8241080F82510C1844FF4FA6000F0FE
:1057800089FC10B14FF0FF30B5E7022000F00AFBB2
:1057900010B14FF0FF30AEE72A2000F009FD10B144
:1057A0004FF0FF30A7E7322000F04EFD10B14FF070
:1057B000FF30A0E70020FFF727FF10B14FF0FF30C8
:1057C00099E7002000F03AFB10B14FF0FF3092E76C
:1057D000002000F091FD00208DE700000000002077
:1057E000B00400202DE9F04389B005460E469046EE
:1057F00099462D4890F8250020B14FF0FF3009B0B0
:10580000BDE8F08316B94FF0FF30F8E7002423E03D
:10581000281B102801DD102000E0281B87B2321958
:105820003946204600F0E0FD10B14FF0FF30E6E7CA
:1058300005AA3946204600F033F910B14FF0FF3089
:10584000DDE730193A4605A9FAF72AFD10B16FF0E5
:105850000100D4E7E01984B2AC42D9DB4FEA28203A
:105860008DF8100008F0FF008DF811004FF48070E3
:10587000022104AACDE9002102900B480068427F72
:1058800009484068017801230848FBF74DFB10B137
:105890004FF0FF30B3E70121034880F82510A0F84E
:1058A00026900020ABE7000000000020B00400209C
:1058B0001FB50446282C03DD4FF0FF3004B010BDA7
:1058C00014BB002000F034FC00208DF80C000720F1
:1058D0008DF80D004FF48070022103AACDE900215C
:1058E000029031480068427D2F48406801780123CA
:1058F0002E48FBF719FB10B14FF0FF30DEE7002117
:10590000294801750020D9E7012000F011FC202072
:105910008DF80C00012C06D100208DF80D0005201B
:1059200000F046FC17E0052C06DC01208DF80D0088
:10593000052000F03DFC0EE0142C06DC02208DF862
:105940000D000A2000F034FC05E003208DF80D0066
:10595000142000F02DFC9DF80D00072101EB8010B4
:10596000C0B28DF80D004FF48070022103AACDE97A
:10597000002102900C480068427D0B484068017885
:1059800001230A48FBF7D0FA10B14FF0FF3095E73A
:105990000821054881720021017301210175002051
:1059A000FFF732FE002089E700000020B00400204D
:1059B0002DE9FF4104460F461646374890F824006B
:1059C00020B94FF0FF3004B0BDE8F0813248807A52
:1059D00010B94FF0FF30F6E74FF48070022103AAB0
:1059E000CDE9002102902C480068027B2A484068DB
:1059F000017801232948FBF7DDF810B14FF0FF30A3
:105A0000E1E79DF80D009DF80C1040EA0125A54244
:105A100003DA00203070401ED5E71F4840684088F8
:105A2000B5EB600F1EDD4FF48070012103AACDE9B4
:105A30000021029018480068C27C1748406801782D
:105A400001231648FBF7B6F810B14FF0FF30BAE764
:105A50009DF80C0000F0100020B100F06FF86FF01E
:105A60000100B0E74FF48070CDE9007402900A485D
:105A70000068427B08484068017801230748FBF72B
:105A800099F810B14FF0FF309DE795FBF4F0401E00
:105A90003070002097E7000000000020B0040020D4
:105AA0007FB504460D4616461EB94FF0FF3004B0D0
:105AB00070BD2048807A10B94FF0FF30F7E7201210
:105AC0008DF80C00E0B28DF80D009DF80D00284413
:105AD000184949684989884202DD4FF0FF30E6E7FE
