:020000040800F2
:100000000839002061020008393000081B2300086D
:10001000353000081F050008053F000800000000FB
:10002000000000000000000000000000C9010008FE
:1000300025050008000000000D020008BB3B000879
:100040007B0200089D3A00087B0200087B02000842
:100050007B0200087B0200087B0200087B0200088C
:100060007B0200087B0200084B0500087B020008A9
:100070007B0200087B0200087B0200087B0200086C
:100080007B0200087B0200087B0200087B0200085C
:100090007B0200087B0200087B020008550500086F
:1000A0007B020008393C00087B0200087B02000844
:1000B0007B020008493C00087B0200087B02000824
:1000C0007B0200087B0200087B0200087B0200081C
:1000D0007B0200087B0200087B0200087B0200080C
:1000E000270500087B0200087B02000800F002F8E8
:1000F00000F05AF80AA090E8000C82448344AAF168
:100100000107DA4501D100F04FF8AFF2090EBAE865
:100110000F0013F0010F18BFFB1A43F0010318473B
:1001200000A9000020A900000A444FF0000C10F8BC
:10013000013B13F0070408BF10F8014B1D1108BF65
:1001400010F8015B641E05D010F8016B641E01F805
:10015000016BF9D113F0080F1EBF10F8014BAD1C55
:100160000C1B09D16D1E58BF01F801CBFAD505E073
:1001700014F8016B01F8016B6D1EF9D59142D6D3CD
:10018000704700000023002400250026103A28BFF5
:1001900078C1FBD8520728BF30C148BF0B607047F9
:1001A0001FB51FBD10B510BD00F084F91146FFF753
:1001B000F7FF04F081FF00F0A2F903B4FFF7F2FFAC
:1001C00003BC00F0A5F90000224B19680868B0E8EC
:1001D000F00F80F30988BFF36F8F4FF0000080F3BA
:1001E00011884EF00D0E70470000000006480068B0
:1001F000006880F3088862B661B6BFF34F8FBFF323
:100200006F8F00DF00BF00BF08ED00E0EFF3098053
:10021000BFF36F8F0F4B1A6820E9F00F106008B51D
:100220004FF0500080F31188BFF34F8FBFF36F8FF3
:1002300007F074FA4FF0000080F31188BDE8084021
:1002400019680868B0E8F00F80F30988BFF36F8F72
:10025000704700BF3C010020EFF3058070470000AD
:100260000948804709480047FEE7FEE7FEE7FEE74A
:10027000FEE7FEE7FEE7FEE7FEE7FEE70448054986
:10028000054A064B70470000373C0008ED000008A7
:1002900008330020083900200835002008350020E8
:1002A00040EA010310B59B070FD1042A0DD310C8F3
:1002B00008C9121F9C42F8D020BA19BA884201D945
:1002C000012010BD4FF0FF3010BD1AB1D30703D08D
:1002D000521C07E0002010BD10F8013B11F8014B43
:1002E0001B1B07D110F8013B11F8014B1B1B01D15F
:1002F000921EF1D1184610BD032A40F2308010F052
:10030000030C00F0158011F8013BBCF1020F6244B0
:1003100098BF11F801CB00F8013B38BF11F8013B41
:10032000A2F1040298BF00F801CB38BF00F8013BEE
:1003300011F0030300F06280083AC0F0088051F821
:10034000043B083A51F804CBA0E80810F5E7121D69
:100350005CBF51F8043B40F8043BAFF30080D20788
:1003600024BF11F8013B11F801CB48BF11F8012B54
:1003700024BF00F8013B00F801CB48BF00F8012B77
:10038000704702F0FF0343EA032242EA024200F010
:1003900069B84FF0000200B51346944696462039DE
:1003A00022BFA0E80C50A0E80C50B1F12001BFF42E
:1003B000F7AF090728BFA0E80C5048BF0CC05DF894
:1003C00004EB890028BF40F8042B08BF704748BFE2
:1003D00020F8022B11F0804F18BF00F8012B704756
:1003E00070477047704710B500F05CF8006810BDAA
:1003F00010B5044600F056F8046010BD10B5203A60
:10040000C0F00B80B1E81850203AA0E81850B1E8CD
:100410001850A0E81850BFF4F5AF5FEA027C24BF83
:10042000B1E81850A0E8185044BF18C918C0BDE87A
:1004300010405FEA827C24BF51F8043B40F8043B43
:1004400008BF7047D20728BF31F8023B48BF11F8F8
:10045000012B28BF20F8023B48BF00F8012B704752
:100460004FF000020429C0F0128010F0030C3FF49A
:1004700092AFCCF1040CBCF1020F18BF00F8012BB5
:10048000A8BF20F8022BA1EB0C01FFF784BF5FEAA5
:10049000C17C24BF00F8012B00F8012B48BF00F8F5
:1004A000012B704700487047A83200200048704771
:1004B000A83200207546FFF7F9FFAE4605006946F1
:1004C000534620F00700854618B020B5FFF7D6FE4A
:1004D000BDE820404FF000064FF000074FF0000845
:1004E0004FF0000B21F00701AC46ACE8C009ACE8C6
:1004F000C009ACE8C009ACE8C0098D46704710B52A
:100500000446AFF300802046BDE81040FFF755BE1B
:1005100001491820ABBEFEE726000200704700BF6D
:10052000FEE77047704710B54FF4806000F0A8F800
:100530004FF4006000F0A4F84FF4805000F0A0F8F1
:100540004FF4005000F09CF810BD10B5102000F0E2
:1005500097F810BD10B5202000F092F8402000F070
:100560008FF8802000F08CF810BD2DE9F05F8046F8
:10057000894615461C464946404600F01FFA824609
:100580002946404600F01AFA83464BEA4A00C6B2B2
:10059000207A46EA8000C7B20F2F17D2DFE807F0B3
:1005A00016080F16121616090B16161016110A0049
:1005B00000BF00BF00BF2068401C206007E000BFF4
:1005C00000BF00BF2068401E206000E000BF00BFE9
:1005D0002672BDE8F09F72B600BFFEE770B5044614
:1005E00000F0FAF906462546681C10B10448007868
:1005F000054400BF00F0F0F9801BA842FAD370BD9B
:100600003401002010B50446102C01D0202C05D157
:10061000154B202210211548FFF7A7FF402C01D0D1
:10062000802C05D1124B802240211048FFF79DFFFE
:10063000B4F5806F02D0B4F5006F06D10D4B4FF4C6
:10064000006251100C48FFF790FFB4F5805F02D0B4
:10065000B4F5005F06D1094B4FF400525110064823
:10066000FFF783FF10BD0000D80100200008014003
:10067000E4010020F0010020000C0140FC010020FA
:1006800010B5044604480068204020B102480460C8
:100690002046FFF7B7FF10BD140401402DE9F847CD
:1006A0000346002294466EE14FF0010808FA02F476
:1006B000D1F8008008EA0400A0427DD1DFF8DCA276
:1006C000D1F80480A8EB0A09D0453AD014DCB8F17F
:1006D000030F50D009DCB8F1000F31D0B8F1010F91
:1006E0001CD0B8F1020F49D120E0B8F1110F18D099
:1006F000B8F1120F42D11EE0B9F5881F25D006DCF3
:10070000B9F5803F20D0B9F5801F37D11AE0B9F58F
:10071000001F18D0B9F5041F30D117E0D1F80CC074
:100720002DE0D1F80C8008F1040C28E0D1F80C8001
:1007300008F1080C23E0D1F80C8008F10C0C1EE045
:1007400000BF00BF00BF00BF00BF00BFD1F80880DE
:10075000B8F1000F02D14FF0040C0BE0D1F8088083
:10076000B8F1010F03D14FF0080C1C6102E04FF00B
:10077000080C5C6103E04FF0000C00E000BF00BF1C
:10078000FF2801D8984601E003F104084646FF28F7
:1007900002D84FEA820803E0A2F108084FEA88086D
:1007A0004746D6F800804FF00F0909FA07F928EA02
:1007B00009080CFA07F900E088E048EA0908C6F8D9
:1007C0000080D1F8048008F08058B8F1805F7DD1B6
:1007D00000BFDFF8CC81D8F8188048F00108DFF8B6
:1007E000C091C9F81880C846D8F8188008F00108E8
:1007F000CDF8008000BF00BF4FEAB9384FEA920938
:1008000058F829504FEA82784FEA18794FF00F08CC
:1008100008FA09F825EA0805DFF88881434502D17E
:100820004FF0000816E0DFF88081434502D14FF019
:1008300001080FE0DFF87481434502D14FF0020850
:1008400008E0DFF86C81434502D14FF0030801E076
:100850004FF004084FEA82794FEA197908FA09F84B
:1008600048EA0505DFF84C814FEA920948F829501B
:10087000D1F8048008F48018B8F5801F0AD1DFF899
:100880003881D8F8008048EA0008DFF82C91C9F8D0
:10089000008009E0DFF82081D8F8008028EA00080D
:1008A000DFF81491C9F80080D1F8048008F400182A
:1008B000B8F5001F10D1DFF8008108F10408D8F85E
:1008C000008048EA0008DFF8F09000E05AE009F103
:1008D0000409C9F800800DE0DFF8DC8008F10408A5
:1008E000D8F8008028EA0008DFF8CC9009F1040964
:1008F000C9F80080D1F8048008F40038B8F5003F4A
:100900000ED1DFF8B480A8F10408D8F8008048EAD6
:100910000008DFF8A490A9F10409C9F800800DE0EF
:10092000DFF89480A8F10408D8F8008028EA0008CD
:10093000DFF88490A9F10409C9F80080D1F8048097
:1009400008F48038B8F5803F0ED1DFF86C80A8F14C
:100950000808D8F8008048EA0008DFF85C90A9F1A0
:100960000809C9F800800DE0DFF84C80A8F10808FC
:10097000D8F8008028EA0008DFF83C90A9F10809BF
:10098000C9F80080521CD1F8008028FA02F8B8F1AA
:10099000000F7FF489AEBDE8F88700000000111059
:1009A0000010024000080140000C0140001001400E
:1009B0000014014008000140080401400246936809
:1009C0000B400BB1012000E0002070470AB101612B
:1009D00001E00B04036170470148006870470000A4
:1009E0002C01002070B504460CB9012070BD94F8AC
:1009F0003D0028B9002084F83C00204600F046FB6A
:100A0000242084F83D002068006820F0010021685F
:100A100008602068006840F4004021680860206891
:100A2000006820F400402168086000F07FFD054662
:100A30005C496068884206D85B48854201D2012043
:100A400007E0002005E05948854201D2012000E07E
:100A50000020012800D1C9E75548B5FBF0F6206811
:100A6000406820F03F003043216848604D4960688D
:100A7000884201D8701C07E04FF4967070434FF421
:100A80007A71B0FBF1F0401C2168096A21F03F0146
:100A900008432168086243496068884214D8681E88
:100AA00061684900B0FBF1F0401CC0F30B00042862
:100AB00001D204203DE0681E61684900B0FBF1F0FE
:100AC000401CC0F30B0034E0A06838B9681E6168B0
:100AD00001EB4101B0FBF1F0401C0AE0681E6168C7
:100AE00001EBC10202EB0111B0FBF1F0401C40F43C
:100AF0008040C0F30B0008B901201AE0A06848B993
:100B0000681E616801EB4101B0FBF1F0401CC0F3CD
:100B10000B000CE0681E616801EBC10202EB0111E1
:100B2000B0FBF1F0401CC0F30B0040F4804040F4F7
:100B300000402168C9694CF6FF729143084321685F
:100B4000C861D4E9070108432168096821F0C001A0
:100B5000084321680860D4E90310084321688968C4
:100B600048F2FF329143084321688860D4E90501C7
:100B700008432168C96821F0FF0108432168C86063
:100B80002068006840F001002168086000202064AF
:100B9000202084F83D000020206384F83E0000BF40
:100BA00024E70000A086010080841E0000093D00AB
:100BB00040420F002DE9FE4F04460F4690469946ED
:100BC000DDE90CAB0E9E00200290FFF705FF054605
:100BD00094F83D00202872D119230122CE492046E5
:100BE000009501F00EFD10B10220BDE8FE8F00BFA0
:100BF00094F83C00012801D10220F6E7012084F896
:100C00003C0000BF2068006800F0010028B920689F
:100C1000006840F00100216808602068006820F446
:100C2000006021680860222084F83D00402084F89C
:100C30003E0000202064C4F824A0A4F82AB0608DEF
:100C40002085B648E0624B46424639462046CDE90B
:100C5000006501F083FB08B10120C6E7208D88B94B
:100C600000BF0020019020684069019020688069E1
:100C7000019000BF00BF2068006840F40070216848
:100C800008604BE0208D01281AD12068006820F40C
:100C900080602168086072B600BF00200190206863
:100CA0004069019020688069019000BF00BF206802
:100CB000006840F400702168086062B62EE029E107
:100CC000208D022819D12068006840F40060216856
:100CD000086072B600BF0020019020684069019052
:100CE00020688069019000BF00BF2068006820F480
:100CF00080602168086062B610E02068006840F4F7
:100D000080602168086000BF002001902068406971
:100D1000019020688069019000BF00BFEBE0208D4A
:100D200003287DD8208D012815D12A46314620463A
:100D300001F043FD08B1012057E720680069616AAE
:100D40000870606A401C6062208D401E2085608DA6
:100D5000401E6085CFE0208D02282CD13346002232
:100D60006F492046009501F04CFC08B101203CE79A
:100D700072B62068006840F400702168086020683E
:100D80000069616A0870606A401C6062208D401EC4
:100D90002085608D401E608562B620680069616AAA
:100DA0000870606A401C6062208D401E2085608D46
:100DB000401E60859FE03346002259492046009539
:100DC00001F01FFC08B101200FE72068006820F443
:100DD00080602168086072B620680069616A0870E6
:100DE000606A401C6062208D401E2085608D401E20
:100DF00060854C4800681921B0FBF1F04FF47A711E
:100E0000B0FBF1F0C0EBC00000EB8000029000BF2F
:100E10000298401E02900298A8B90020206300E0CA
:100E200039E0202084F83D00002084F83E00206C4A
:100E300040F02000206462B600BF002084F83C002F
:100E400000BF0120D1E620684069C0F3800000287F
:100E5000DED02068006840F40070216808602068D7
:100E60000069616A0870606A401C6062208D401EE3
:100E70002085608D401E608562B620680069616AC9
:100E80000870606A401C6062208D401E2085608D65
:100E9000401E60852FE02A463146204601F08DFC39
:100EA00008B10120A1E620680069616A0870606AE3
:100EB000401C6062208D401E2085608D401E608534
:100EC00020684069C0F38000A8B1208D032805D1B7
:100ED0002068006820F4806021680860206800694C
:100EE000616A0870606A401C6062208D401E208527
:100EF000608D401E6085208D00287FF410AF20207B
:100F000084F83D00002084F83E0000BF84F83C00D7
:100F100000BF6AE6022068E6020010000000FFFF42
:100F200004000100380100202DE9FC5F04460F4653
:100F300090469946DDE90CAB0E9EFFF74DFD054648
:100F400094F83D0020287DD1192301224D492046E7
:100F5000009501F056FB10B10220BDE8FC9F00BFD8
:100F600094F83C00012801D10220F6E7012084F822
:100F70003C0000BF2068006800F0010028B920682C
:100F8000006840F00100216808602068006820F4D3
:100F9000006021680860212084F83D00402084F82A
:100FA0003E0000202064C4F824A0A4F82AB0608D7C
:100FB00020853548E0624B46424639462046CDE919
:100FC000006501F07BFA08B10120C6E731E02A464E
:100FD0003146204601F036FC50B1206C042805D182
:100FE0002068006840F40070216808600120B4E7C0
:100FF000606A007821680861606A401C6062208D28
:10100000401E2085608D401E608520684069C0F3C9
:10101000800070B1208D60B1606A0078216808613D
:10102000606A401C6062208D401E2085608D401EDD
:101030006085208D0028CAD12A463146204601F01D
:10104000ADFA00E01CE050B1206C042805D1206806
:10105000006840F400702168086001207DE7206886
:10106000006840F4007021680860202084F83D008A
:10107000002084F83E0000BF84F83C0000BF6CE70D
:1010800002206AE7020010000000FFFF10B586B0E2
:101090000446002002900390049005901A492068AD
:1010A00088422FD100BF1948806940F008001749D5
:1010B00088610846806900F00800019000BF00BF09
:1010C0004FF440700290122003900320059002A973
:1010D0000F48FFF7E3FA00BF0E49486840F0E060B0
:1010E00040F00200486000BF00BF0848C06940F4FB
:1010F00000100649C8610846C06900F4001001905C
:1011000000BF00BF06B010BD0054004000100240F8
:10111000000C0140000001400348006803490978C1
:1011200008440149086070472C0100203401002068
:1011300010B50848006840F0100006490860032018
:1011400000F0E0F80F2000F007F800F055F800205C
:1011500010BD000000200240F0B587B00446002614
:101160000027002500BF1F48806940F400601D492A
:1011700088610846806900F40060009000BF00BFED
:1011800001A902A800F0AAF900F0E0F90646164805
:10119000B6FBF0F0471E15481549086040F2E731EC
:1011A0001348C1604760002101618160816100F0E6
:1011B0008BFC054695B90E4800F012FD05466DB949
:1011C000192000F051F8102C07D2002221461920D6
:1011D00000F05AF80748046000E00125284607B0EF
:1011E000F0BD00000010024040420F00002C014002
:1011F0008C0500203001002008B500BF1848806928
:1012000040F00100164988610846806900F001003D
:10121000009000BF00BF00BF0846C06940F080508A
:10122000C8610846C06900F08050009000BF00BF50
:1012300000220F21901E00F027F800220521012036
:1012400000F022F8012000F00FF800BF05494868BF
:1012500020F0E06040F00070486000BF08BD000072
:10126000001002400000014001460846002809DB4A
:1012700000F01F0301229A4043099B0003F1E02381
:10128000C3F8002100BF70472DE9F05F80460D468E
:101290001646002702F04CFE074639462A463346DA
:1012A00001F00700C0F1070ABAF1040F02D94FF0AC
:1012B000040A01E0C0F1070AD14600F1040ABAF1BC
:1012C000070F02D24FF0000A01E0A0F1030AD44652
:1012D0004FF0010A0AFA09FAAAF1010A0AEA020A17
:1012E0000AFA0CFA4FF0010B0BFA0CFBABF1010BF5
:1012F0000BEA030B4AEA0B042146404602F020FEAB
:10130000BDE8F09F00BF00F00702064B19684FF6DA
:10131000FF031940044B0B4343EA0221014B1960C0
:1013200000BF70470CED00E00000FA0570470000B8
:1013300010B50648006800F4803028B1FFF7F6FFCA
:101340004FF480300149086010BD000014040140D2
:1013500070B504460D460CB9012070BD5A480068AE
:1013600000F00700A8420ED25748006820F007009E
:101370002843554908600846006800F00700A84265
:1013800001D00120E9E7207800F0020002281DD1F9
:10139000207800F00400042805D14C48406840F44F
:1013A000E0604A494860207800F00800082805D12C
:1013B0004648406840F460504449486043484068AB
:1013C00020F0F000A168084340494860207800F010
:1013D000010078B36068012806D13C48006800F439
:1013E000003090B90120B8E76068022806D137487C
:1013F000006800F0007040B90120AEE73348006893
:1014000000F0020008B90120A7E73048406820F04A
:101410000300616808432D494860FFF7DDFA06467E
:1014200009E0FFF7D9FA801B41F28831884202D9DE
:10143000032092E707E02548406800F00C0061684F
:10144000B0EB810FEDD12048006800F00700A84202
:101450000ED91D48006820F0070028431A4908608B
:101460000846006800F00700A84201D0012074E798
:10147000207800F00400042807D11448406820F4C4
:10148000E060E168084311494860207800F00800F6
:10149000082808D10D48406820F46050216940EACE
:1014A000C1000A49486000F061F808494968C1F381
:1014B0000311074A515CC8400649086006480068A5
:1014C000FFF74AFE002048E70020024000100240DB
:1014D0001EA8000838010020300100200F22026001
:1014E0000D4A526802F0030242600B4A526802F051
:1014F000F0028260084A526802F4E062C260064A62
:10150000526802F46052D2080261044A126802F082
:1015100007020A60704700000010024000200240ED
:1015200001480068704700003801002000B5FFF74F
:10153000F7FF04494968C1F30221034A515CC840DE
:1015400000BD0000001002402EA8000800B5FFF703
:10155000E7FF04494968C1F3C221034A515CC8400E
:1015600000BD0000001002402EA8000870B5002148
:101570000022002400230020134D696801F00C05AF
:10158000F5B1042D02D0082D19D101E00F4819E062
:101590000F4DC1F38346AB5D01F4803555B10A4D63
:1015A0006D68C5F340450B4E725D084D5D43B5FB5C
:1015B000F2F402E0084D03FB05F4204602E000BF10
:1015C000024800BF00BF70BD0010024000127A0048
:1015D0000CA800081CA8000800093D00F8B5044646
:1015E0000CB90120F8BD207800F00100002878D067
:1015F000F848406800F00C0004280CD0F54840681A
:1016000000F00C00082811D1F248406800F4803046
:10161000B0F5803F0AD1EF48006800F400300028A0
:101620005FD0606800285CD10120DBE700BF606804
:10163000B0F5803F06D1E748006840F48030E549C6
:10164000086028E0606858B9E248006820F48030FB
:10165000E04908600846006820F4802008601AE02D
:101660006068B0F5A02F0BD1DA48006840F4802004
:10167000D84908600846006840F4803008600AE0F5
:10168000D448006820F48030D249086008460068D9
:1016900020F48020086000BF606888B1FFF79CF9E3
:1016A000054606E0FFF798F9401B642801D903209E
:1016B00098E7C848006800F400300028F2D010E035
:1016C000FFF78AF9054606E0FFF786F9401B642814
:1016D00001D9032086E7BF48006800F400300028E5
:1016E000F2D1207800F00200022857D1B9484068B2
:1016F00000F00C0050B1B748406800F00C0008281A
:1017000018D1B448406800F4803098B9B1480068F6
:1017100000F0020020B12069012801D0012061E71A
:10172000AC48006820F0F800616940EAC100A949AE
:10173000086033E02069E8B10120A7490860FFF79D
:101740004BF9054606E0FFF747F9401B022801D98F
:10175000032047E79F48006800F002000028F2D00D
:101760009C48006820F0F800616940EAC10099498E
:10177000086013E0002098490860FFF72DF905463E
:1017800006E0FFF729F9401B022801D9032029E7C9
:101790009048006800F002000028F2D1207800F0A4
:1017A000080008282DD1A069B8B101208B49086034
:1017B000FFF712F9054606E0FFF70EF9401B022875
:1017C00001D903200EE78348406A00F00200002898
:1017D000F2D0012002F0D8F913E000207F49086020
:1017E000FFF7FAF8054606E0FFF7F6F8401B022877
:1017F00001D90320F6E67748406A00F0020000288D
:10180000F2D1207800F00400042873D10027714839
:10181000C06900F0805070B900BF6E48C06940F0E8
:1018200080506C49C8610846C06900F08050009043
:1018300000BF00BF01276A48006800F48070B0B99B
:101840006748006840F4807065490860FFF7C4F895
:10185000054606E0FFF7C0F8401B642801D90320C5
:10186000C0E65F48006800F480700028F2D000BF36
:10187000E068012806D15748006A40F00100554948
:10188000086227E0E06858B95248006A20F0010079
:10189000504908620846006A20F00400086219E016
:1018A000E06805280BD14B48006A40F00400494924
:1018B00008620846006A40F0010008620AE04548F4
:1018C000006A20F00100434908620846006A20F0DF
:1018D0000400086200BFE068A0B1FFF77DF805468C
:1018E00009E0FFF779F8401B41F28831884202D9BC
:1018F000032077E622E03748006A00F00200002863
:10190000EFD012E0FFF768F8054608E0FFF764F84B
:10191000401B41F28831884201D9032062E62D48FC
:10192000006A00F002000028F0D1012F05D12948FB
:10193000C06920F080502749C86100BFE069C8B382
:101940002448406800F00C00082860D0E0690228B4
:1019500048D1002020490866FFF73EF8054606E01A
:10196000FFF73AF8401B022801D903203AE619484C
:10197000006800F000700028F2D1206AB0F5803FC6
:1019800007D11448406820F40030A1680843114989
:101990004860D4E9080108430E49496821F47411EC
:1019A00008430C49486001200B490866FFF714F80A
:1019B000054607E03DE0FFF70FF8401B022801D97C
:1019C00003200FE60348006800F000700028F2D002
:1019D0002FE000000010024000004242800442421A
:1019E00000700040002014490866FEF7F5FF054628
:1019F00006E0FEF7F1FF401B022801D90320F1E5C4
:101A00000E48006800F000700028F2D111E0E06993
:101A1000012800D1E6E50948466806F48031206ACD
:101A2000814204D106F47011606A814201D0012024
:101A3000D8E50020D6E50000000042420010024038
:101A40007047704730B502460B4600BF92F83C0025
:101A5000012801D1022030BD012082F83C0000BFE6
:101A6000022082F83D00106844681068816824F004
:101A700070041868044310684460104D1068A84250
:101A80000BD01068B0F1804F07D00D4D1068A84200
:101A900003D00C4D1068A84205D121F08001586890
:101AA000014310688160012082F83D0000BF0020E2
:101AB00082F83C0000BF00BFCDE70000002C0140D1
:101AC000000400400008004010B504460CB9012095
:101AD00010BD94F83D0028B9002084F83C00204651
:101AE00000F026F8022084F83D00211D206802F055
:101AF000B3F8012084F8460000BF84F83E000121BD
:101B00003F200155402001554120015500BF00BF35
:101B1000012084F84200432001554420015545200E
:101B2000015500BF012084F83D000020D0E70000EF
:101B300038B504460D492068884215D100BF0C48CD
:101B4000C06940F002000A49C8610846C06900F057
:101B50000200009000BF00BF002205211D20FFF7FA
:101B600093FB1D20FFF780FB38BD00000004004000
:101B700000100240014691F83D00012801D00120EB
:101B80007047022081F83D00124B086898420BD044
:101B90000868B0F1804F07D00F4B0868984203D017
:101BA0000E4B086898420CD10868806800F0070264
:101BB000062A0CD00868006840F001000B68186025
:101BC00005E00868006840F001000B68186000201C
:101BD000D6E70000002C014000040040000800404F
:101BE000014691F83D00012801D0012070470220F4
:101BF00081F83D000868C06840F001000B68D860BB
:101C0000124B086898420BD00868B0F1804F07D09B
:101C10000F4B0868984203D00E4B086898420CD1CD
:101C20000868806800F00702062A0CD0086800687F
:101C300040F001000B68186005E00868006840F09B
:101C400001000B6818600020D0E70000002C014064
:101C500000040040000800402DE9F04104460D4614
:101C6000002700BF94F83C00012802D10220BDE803
:101C7000F081012084F83C0000BF022084F83D0080
:101C80002068866826F0770626F47F4620688660FE
:101C90002868502833D00CDC202850D004DC0028E1
:101CA0004BD0102851D149E0302849D040284CD1A0
:101CB00039E060282DD0702807D0B0F5805F03D0C0
:101CC000B0F5005F41D10DE041E0D5E902136A684B
:101CD000206802F014F82068866846F077062068CD
:101CE000866034E0D5E902136A68206802F007F8DC
:101CF0002068806840F480402168886027E0EA68B6
:101D00006968206802F0CCF85021206802F002F8DF
:101D10001DE0EA686968206802F0D5F86021206853
:101D200001F0F8FF13E0EA686968206802F0B8F88B
:101D30004021206801F0EEFF09E000BF00BF00BFB6
:101D40002968206801F0E6FF01E0012700BF00BF1D
:101D5000012084F83D0000BF002084F83C0000BF53
:101D6000384684E7704770B504462068C568206827
:101D7000066906F00200022819D105F002000228C7
:101D800015D1401F216808610120207720688069F3
:101D900000F0030018B12046FFF7E4FF05E02046FD
:101DA00000F0C2F8204600F08BF90020207706F002
:101DB0000400042819D105F00400042815D1C043FB
:101DC00021680861022020772068806900F4407053
:101DD00018B12046FFF7C6FF05E0204600F0A4F842
:101DE000204600F06DF90020207706F00800082852
:101DF00019D105F00800082815D1C04321680861F1
:101E0000042020772068C06900F0030018B1204644
:101E1000FFF7A8FF05E0204600F086F8204600F016
:101E20004FF90020207706F01000102819D105F096
:101E30001000102815D1C0432168086108202077C0
:101E40002068C06900F4407018B12046FFF78AFF8F
:101E500005E0204600F068F8204600F031F9002047
:101E6000207706F0010048B105F0010030B16FF0B5
:101E7000010021680861204600F08EF906F080001C
:101E8000802809D105F08000802805D1C043216851
:101E900008612046FFF7D4FD06F04000402809D134
:101EA00005F04000402805D1C04321680861204664
:101EB00000F032FA06F02000202809D105F02000B9
:101EC000202805D1C043216808612046FFF7B9FDED
:101ED00070BD000010B586B004460020029003904B
:101EE000049005902068B0F1804F16D100BF0C48D7
:101EF000806940F004000A4988610846806900F062
:101F00000400019000BF00BF0F2002900220039048
:101F1000059002A90348FEF7C1FB06B010BD000002
:101F2000001002400008014070472DE9F0410446CE
:101F30000D461646002700BF94F83C00012802D148
:101F40000220BDE8F081012084F83C0000BF36B1DA
:101F5000042E1BD0082E31D00C2E5ED145E0294630
:101F6000206801F0E1FE2068806940F008002168E7
:101F700088612068806920F00400216888612068F9
:101F80008069296908432168886148E029462068FA
:101F900001F0FAFE2068806940F4006021688861E1
:101FA0002068806920F480602168886120688069E9
:101FB000296940EA01202168886130E029462068CB
:101FC00001F016FF2068C06940F008002168C86170
:101FD0002068C06920F004002168C8612068C069D9
:101FE000296908432168C86119E02946206801F081
:101FF00033FF2068C06940F400602168C861206830
:10200000C06920F480602168C8612068C0692969BE
:1020100040EA01202168C86101E0012700BF00BF3C
:1020200000BF002084F83C0000BF384689E710B5A7
:1020300004460CB9012010BD94F83D0028B90020D9
:1020400084F83C00204600F025F8022084F83D008A
:10205000211D206801F000FE012084F8460000BF29
:1020600084F83E0001213F200155402001554120C8
:10207000015500BF00BF012084F8420043200155F4
:10208000442001554520015500BF012084F83D0042
:102090000020D0E708B50168B1F1804F0DD100BF35
:1020A0000649C96941F00101044AD1611146C96973
:1020B00001F00101009100BF00BF08BD0010024007
:1020C0007047000070B504460D4615B994F83E00FF
:1020D0000BE0042D02D13F20005D06E0082D02D167
:1020E0004020005D01E04120005D012801D0012079
:1020F00070BD1DB9022084F83E000EE0042D03D10E
:1021000002213F20015508E0082D03D10221402083
:10211000015502E002214120015501222946206893
:1021200001F0DCFD19492068884201D1012000E05E
:10213000002028B12068406C40F4004021684864C9
:102140001249206888420BD02068B0F1804F07D038
:102150000F492068884203D00E49206888420CD17C
:102160002068806800F00706062E0CD02068006802
:1021700040F001002168086005E02068006840F038
:102180000100216808600020B2E70000002C014037
:10219000000400400008004030B589B004465049B2
:1021A0002068884201D1FEF7B7FF4E492068884277
:1021B0007ED100200890079006900590049003902F
:1021C000029001904849086807F0E8F904904749EF
:1021D000086807F0E3F903904549086807F0DEF95D
:1021E00002904449086807F0D9F901903E494868CF
:1021F00007F0D4F90546049907F02DFB08900498E0
:1022000007F090F9384948603849486807F0C6F93E
:102210000546039907F01FFB0790039807F082F922
:10222000324948603249486807F0B8F905460299D2
:1022300007F011FB80F000400690029807F072F959
:102240002B4948602B49486807F0A8F905460199D1
:1022500007F001FB80F000400590019807F062F95B
:102260002449486000231A4608A92348006803F05F
:1022700083FF00231A4607A92048006803F07CFF6B
:1022800000231A4606A91E48006803F075FF0023C4
:102290001A4605A91B48006803F06EFF00231A4682
:1022A00004A91948006803F067FF00231A4600E0FC
:1022B00013E003A91548006803F05EFF00231A46E7
:1022C00002A91348006803F057FF00231A4601A92A
:1022D0001048006803F050FF00BF09B030BD000097
:1022E000002C014000040040D8010020E40100203F
:1022F000F0010020FC010020080100200C0100205A
:102300001001002014010020180100201C010020F1
:102310002001002024010020704700BFFEE7014695
:1023200008684069C0F38020B0B16FF480600A682B
:10233000506100200863202081F83D00002081F8D2
:102340003E00086C40F00400086400BF002081F8E3
:102350003C0000BF012070470020FCE72DE9F84356
:1023600004460F4615469946DDE908862068006850
:1023700040F48060216808602068006840F4807044
:1023800021680860434600224FF001112046009664
:1023900000F037F960B12068006800F48070B0F593
:1023A000807F02D14FF4007020640320BDE8F883E1
:1023B00007F0FE0021680861334642463E49204648
:1023C00000F07EF908B10120F0E700BF0020009086
:1023D00020684069009020688069009000BF00BFBD
:1023E00032464146204600F02DFA50B1206C0428B8
:1023F00005D12068006840F4007021680860012061
:10240000D4E7B9F1010F03D1E8B22168086117E000
:10241000C5F307202168086132464146204600F096
:1024200011FA50B1206C042805D12068006840F4EE
:102430000070216808600120B8E7E8B221680861EF
:1024400032464146204600F0FDF950B1206C042888
:1024500005D12068006840F4007021680860012000
:10246000A4E72068006840F4807021680860434653
:1024700000224FF001112046009600F0C2F858B13A
:102480002068006800F48070B0F5807F02D14FF4BE
:1024900000702064032089E7F8B240F00100216851
:1024A0000861334642460449204600F009F908B164
:1024B00001207BE7002079E7020001002DE9F843C5
:1024C0000446884615469946DDE908672068006895
:1024D00040F4807021680860334600224FF00111FB
:1024E0002046009700F08DF860B12068006800F485
:1024F0008070B0F5807F02D14FF40070206403201B
:10250000BDE8F88308F0FE00216808613B463246CA
:102510002149204600F0D4F808B10120F0E700BFBF
:102520000020009020684069009020688069009039
:1025300000BF00BF3A463146204600F083F950B153
:10254000206C042805D12068006840F400702168E0
:1025500008600120D4E7B9F1010F03D1E8B2216886
:10256000086117E0C5F30720216808613A46314643
:10257000204600F067F950B1206C042805D120688E
:10258000006840F40070216808600120B8E7E8B2F4
:10259000216808610020B3E70200010070B504461D
:1025A0000D46164625E02046FFF7B9FE08B101208A
:1025B00070BD681CE8B1FEF70FFA801BA84200D876
:1025C000BDB920684069C0F3800090B90020206345
:1025D000202084F83D00002084F83E00206C40F06C
:1025E0002000206400BF002084F83C0000BF0120D0
:1025F000DEE720684069C0F380000028D3D00020C7
:10260000D6E72DE9F04104460D4617461E46DDF893
:10261000188038E0701CA8B3FEF7DEF9A0EB0800C4
:10262000B04200D876BBC5F3074001280AD1206824
:102630004069A9B20840A9B2884201D101200BE04B
:10264000002009E020688069A9B20840A9B2884248
:1026500001D1012000E00020B84214D10020206305
:10266000202084F83D00002084F83E00206C40F0DB
:102670002000206400BF002084F83C0000BF01203F
:10268000BDE8F081FFE7C5F3074001280AD12068C3
:102690004069A9B20840A9B2884201D101200BE0EB
:1026A000002009E020688069A9B20840A9B28842E8
:1026B00001D1012000E00020B842ABD00020DFE7CC
:1026C0002DE9F04104460D4616461F4658E02068A5
:1026D0004069C0F38020E8B12068006840F40070D1
:1026E000216808606FF480602168486100202063E1
:1026F000202084F83D00002084F83E00206C40F04B
:102700000400206400BF002084F83C0000BF0120CA
:10271000BDE8F081701C90B3FEF75EF9C01BB042BB
:1027200000D866BBC5F3074001280AD1206840697C
:10273000A9B20840A9B2884201D101200BE00020D3
:1027400009E020688069A9B20840A9B2884201D195
:10275000012000E0002090B900202063202084F8B0
:102760003D00002084F83E00206C40F020002064F2
:1027700000BF002084F83C0000BF0120C8E7FFE74D
:10278000C5F3074001280AD120684069A9B2084072
:10279000A9B2884201D101200BE0002009E02068A5
:1027A0008069A9B20840A9B2884201D1012000E0A5
:1027B000002000288BD00020AAE770B504460D4603
:1027C000164637E020684069C0F30010A0B16FF0F2
:1027D00010002168486100202063202084F83D001B
:1027E000002084F83E00206C206400BF002084F8A4
:1027F0003C0000BF012070BDFEF7EEF8801BA84230
:1028000000D8BDB920684069C0F3801090B900209D
:102810002063202084F83D00002084F83E00206CD6
:1028200040F02000206400BF002084F83C0000BF7E
:102830000120E0E720684069C0F380100028C1D083
:102840000020D8E770B504460D46164625E0204620
:10285000FFF765FD08B1012070BD681CE8B1FEF707
:10286000BBF8801BA84200D8BDB920684069C0F3FE
:10287000C01090B900202063202084F83D00002083
:1028800084F83E00206C40F02000206400BF00204F
:1028900084F83C0000BF0120DEE720684069C0F3F7
:1028A000C0100028D3D00020D6E700002DE9F04F5B
:1028B00099B004460D4616464FF07E574FF000087B
:1028C0004FF000094FF0000A0EA80FA910AB11AA93
:1028D000CDE9001015A917A802F086F820B14FF035
:1028E000FF3019B0BDE8F08FBDF83C0000F48070F7
:1028F00000287CD0119806F051FE83464FF09D4190
:1029000006F01AFD0746129806F048FE83464FF07F
:102910009D4106F011FD8046139806F03FFE834668
:102920004FF09D4106F008FD8146149806F036FEF2
:1029300083464FF09D4106F0FFFC824639464FF03A
:10294000804006F08BFE4946059006F087FE414622
:1029500007904FF0404006F081FE5146059006F08A
:102960007DFE0690079906F079FC834606F04AFC46
:10297000CDE9080101F064FB4FF06632524BCDE91E
:102980000A0106F02FF9CDE90C0105F07BFE20606D
:1029900049464FF0804006F061FE4946029006F03D
:1029A0005DFE414604904FF0404006F057FE414620
:1029B000029006F053FE0390049906F057FF8346F9
:1029C0004FF07E5106F04AFC059006F01BFCCDE965
:1029D000080139464FF0804006F040FE4146039022
:1029E00006F03CFE494604904FF0804000E069E06C
:1029F00006F034FE5146039006F030FE83460499FB
:102A000006F02CFC059006F0FDFBCDE90601DDE9A2
:102A1000082301F05DFD4FF066322B4BCDE90A0132
:102A200006F0E0F8CDE90C0105F02CFE28605146D7
:102A3000504606F013FE49460490484606F00EFE46
:102A400041460390404606F009FE3946019038465B
:102A500006F004FE0090019906F000FC0290039934
:102A600006F004FF8346049906F000FF059006F087
:102A7000C9FBCDE908014946404606F0EFFD514645
:102A80000490384606F0EAFD0390049906F0E6FB50
:102A90004FF08041059006F0E1FD834606F0B2FB61
:102AA000CDE90601DDE9082301F012FD4FF06632A1
:102AB000054BCDE90A0106F095F8CDE90C0105F0CA
:102AC000E1FD306000200CE766A64C4038B5684652
:102AD00002F08EFB044614B14FF0FF3038BD782071
:102AE00003F0A0F9044614B16FF00100F6E7782076
:102AF00002F020FB044614B16FF00200EEE7C8209C
:102B000003F038F9044614B16FF00300E6E701F072
:102B10005FFF044614B16FF00400DFE7124802F0D3
:102B20008FFA054602F082F8044614B16FF00500F2
:102B3000D4E740F2731001F0F3FD044614B16FF0D6
:102B40000600CBE7C82002F039F8044614B16FF054
:102B50000700C3E7012002F0DBFF044614B16FF069
:102B60000900BBE70020B9E72C0000200EB50020CB
:102B7000029001900090FFF7A9FF1F49086003E051
:102B8000FFF7A4FF1C4908601B4800680028F7D124
:102B900000BF02AA694601A8FFF788FE174908602E
:102BA00002AA694601A8FFF781FE08B9012000E0EA
:102BB0000020E8B10021029806F01CFD04D2104963
:102BC000029806F04BFB02900E480078C82804DA01
:102BD0000C480078401C0B49087000231A4602A9D3
:102BE0000948006803F0C8FA052004F0B7FCD0E7F4
:102BF000012004F0B3FCCCE7EC000020F000002042
:102C00000000B443D40000200401002010B5324B72
:102C100000220121314803F04DFB31490860314A5F
:102C20000421052003F05AFA2F4908602F4A042195
:102C3000084603F053FA2E4908602E4A042108463C
:102C400003F04CFA2C4908602C4A0421084603F092
:102C500045FA2B4908602B4A0421084603F03EFA46
:102C600029490860294A0421084603F037FA28490F
:102C70000860284A0421084603F030FA2649086013
:102C8000264A0421084603F029FA25490860254A06
:102C90000421084603F022FA23490860234A002150
:102CA000234803F0ABFA23490860234A0021234854
:102CB00003F0A4FA22490860224A0021224803F0C6
:102CC0009DFA22490860224A0021224803F096FA20
:102CD0002149086010BD0000FCA70008230500087A
:102CE0002801002024A70008040100203CA70008B8
:102CF0000801002054A700080C0100206CA7000860
:102D00001001002084A70008140100209CA70008DF
:102D100018010020B4A700081C010020CCA700085F
:102D200020010020E4A700082401002094A6000848
:102D3000B13B0008F4000020B8A600086D2B000885
:102D4000F8000020DCA600083D300008FC00002050
:102D500000A70008F16D00080001002000B585B053
:102D60000020019002900390049000BF57488069B2
:102D700040F01000554988610846806900F0100055
:102D8000009000BF00BF00BF0846806940F02000EF
:102D900088610846806900F02000009000BF00BFF5
:102DA00000BF0846806940F00400886108468069D9
:102DB00000F00400009000BF00BF00BF084680691B
:102DC00040F0080088610846806900F00800009023
:102DD00000BF00BF00224FF4C0413D48FDF7F6FDA3
:102DE00000224CF22B013B48FDF7F0FD00224FF48E
:102DF00070613948FDF7EAFD4FF4C04001900120B1
:102E00000290002003900220049001A93048FDF7B1
:102E100045FCF0200190314802900120039001A967
:102E20002D48FDF73BFC4CF22B0001900120029055
:102E300003900220049001A92648FDF72FFC4FF4CF
:102E400070500190254802900120039001A921486B
:102E5000FDF724FC4FF44070019001200290039094
:102E60000220049001A91C48FDF718FC4FF44060B3
:102E7000019001200290002003900220049001A9FB
:102E80001548FDF70BFC10200190002002900390E4
:102E900001A91048FDF702FC002205210A20FEF7D7
:102EA000F3F90A20FEF7E0F9002205211720FEF7CA
:102EB000EBF91720FEF7D8F9002205212820FEF7AC
:102EC000E3F92820FEF7D0F905B000BD001002405C
:102ED00000100140000C01400008014000003110CA
:102EE00010B50B480B4908600B48486000210948A1
:102EF0008160C1604FF480410161002141618161C5
:102F0000C1610162FDF76EFD08B1FDF764FB10BD04
:102F100000540040A8040020801A060000B589B0C3
:102F20000020079008901C216846FDF732FA4FF008
:102F30008040234908604720486000212048816084
:102F400040F2E731C160002101618161FFF76FF854
:102F500008B1FDF740FB00200790089007A918482A
:102F6000FEF770FD08B1FDF736FB602000900020F1
:102F7000019002900490002269461148FEF7D5FFA7
:102F800008B1FDF728FB042269460D48FEF7CDFF86
:102F900008B1FDF720FB082269460948FEF7C5FF86
:102FA00008B1FDF718FB0C2269460548FEF7BDFF86
:102FB00008B1FDF710FB0248FEF78CFF09B000BD19
:102FC000FC04002000B587B0002003900490059019
:102FD00006900190029015481549086040F2CF20F4
:102FE000486000211248816040F2E731C160002151
:102FF000016180218161FEF767FD08B1FDF7EBFA01
:103000004FF48050039003A90948FEF725FE08B14C
:10301000FDF7E1FA00200190029001A90448FEF7B3
:1030200011FD08B1FDF7D7FA07B000BD000400405C
:103030004405002000BFFEE700BFFEE78EB0002081
:103040000C900D900B900790089009900A900690B4
:1030500005900490039000BF00BF00BF00BF00BFF9
:1030600000BF002400250026DD48DE4BDE4A00219B
:103070000090DE4800F022FBD948DA4BDC4A002100
:103080000090DC4800F01AFBD548DB4BDB4A0021FE
:103090000090DB4800F012FBD748DA4BDA4A0021F7
:1030A0000090DA4800F00AFBD348D64BD84A0021FA
:1030B0000090D84800F002FBCF48D24BD64A0021FE
:1030C0000090D64800F0FAFACB48CE4BD44A002103
:1030D0000090D44800F0F2FA00BF00231A460BA972
:1030E000D148006802F0BAFF10B1012002F060FF81
:1030F00000231A46CD49CE48006802F0AFFF10B158
:10310000012002F055FF00231A46CA49CA48006848
:1031100002F0A4FF10B1012002F04AFF00231A467A
:10312000C649C748006802F099FF10B1012002F0BB
:103130003FFF00231A46C349C348006802F08EFFD0
:1031400010B1012002F034FF00231A4606A9BF483F
:10315000006802F083FF10B1012002F029FF002374
:103160001A4605A9BA48006802F078FF10B101209C
:1031700002F01EFF00231A4604A9B648006802F0B8
:103180006DFF10B1012002F013FF00231A4603A9BE
:10319000B148006802F062FF10B1012002F008FFA0
:1031A000AE480078012809D1AD480078C82805D17B
:1031B000AC490B9808600020A8490870AA49A948A2
:1031C000006806F017FB07D8A749A648006806F074
:1031D0004DFBA44908600CE00021A248006806F0FD
:1031E00009FA06D2A0499F48006806F037F89D49C1
:1031F00008609B480078C82806D19A480B99006857
:1032000006F034FB9949086099499848006806F02F
:10321000F1F906D294499548006806F01FF89349E1
:10322000086094499148006806F0E4FA06D28E4995
:103230008E48006806F01AFB8C4908608E48002111
:1032400002686A4800F022F904468C4800210268AE
:10325000684800F01BF90546844800210268684868
:1032600000F014F906462946204605F0F7FF074608
:10327000314605F0F3FF07902946204606F0F6FA9E
:103280000746314605F0EAFF08902946204605F03A
:10329000E5FF0746314606F0E9FA0990294620463F
:1032A00006F0E4FA0746314606F0E0FA0A905F4875
:1032B000006880F0004A51465448079A00F0E6F84A
:1032C000814605F09FFF21F00041074605F020FCF4
:1032D00080B2ADF830005748006880F0004A51468F
:1032E0004C48089A00F0D2F8814605F08BFF21F097
:1032F0000041074605F00CFC80B2ADF832004F48A3
:10330000006880F0004A51464448099A00F0BEF82F
:10331000814605F077FF21F00041074605F0F8FBF4
:1033200080B2ADF834004748006880F0004A51464A
:103330003C480A9A00F0AAF8814605F063FF21F0A4
:103340000041074605F0E4FB80B2ADF836000020EE
:103350000BE00CA931F81010B1F57A7F04DB40F2D4
:10336000E7310CAA22F81010401C0428F1DB0021E0
:10337000264ABDF830000123CDE901210090022248
:103380003F49084600F08EFB0421224ABDF8320076
:10339000CB01CDE9012100908A013A49084600F0AD
:1033A00081FB08211D4ABDF83400CB02CDE9012183
:1033B00000908A023449084600F074FB0C21194A37
:1033C000BDF836004FF40043CDE9012100905A10BA
:1033D0002B49084600F066FB0A2004F0BFF87CE6A3
:1033E0000000484300007A446800002008020020E2
:1033F0007400002068020020000048428000002085
:10340000C802002000C079448C000020280300205E
:103410009800002088030020A4000020E80300207A
:10342000B00000204804002004010020DC0000203F
:1034300008010020E00000200C010020E400002032
:1034400010010020E80000201401002018010020D5
:103450001C0100202001002024010020BC000020CD
:10346000D4000020C00000200000B443C4000020AD
:10347000000034C300003443C8000020CC0000200A
:10348000000C014000080140001001402DE9F0410E
:1034900004460E4615462946606A06F00FF803D02A
:1034A00001208249087065628048007860B16088B8
:1034B0007F490988884204DD002060807B490870CC
:1034C00002E06088401C608014B90020BDE8F081F3
:1034D000A16DE165616DA1652562216B6163E16AA2
:1034E0002163E662D4E90B0105F0B8FE8046616B0A
:1034F00005F0B4FE07466F4905F01EFFA06228469E
:10350000A16A06F0B3F960656848007840BB606D59
:1035100005F078FE21F0004107460022664B05F0D9
:103520005FFC0CD2608850B90021606A05F0C6FFCC
:1035300005D0606920616088401C608016E04FF013
:103540007E51206905F0BAFF0BD05948008814213C
:1035500090FBF1F06188884203DD6088401C608048
:1035600004E04FF07E502061002060802078002829
:1035700051D1D4E9150106F079F9A0642169606898
:1035800006F06CF80746616D06F068F8E063616D5F
:10359000A06806F063F80746216C05F05FFE206422
:1035A000E16C2165A16CE164A16CE06806F056F85D
:1035B0006064E169206C06F01DF902D2E0692064C4
:1035C0000BE0E06980F000473846216C06F012F904
:1035D00003D2E06980F000402064D4E90F0105F0D7
:1035E0003DFE0746616C05F039FEA063A169A06B42
:1035F00006F000F902D2A069A06355E0A06980F04E
:1036000000473846A16B06F0F5F84DD2A06980F06E
:103610000040A06348E02078012845D1D4E9150195
:1036200006F024F90746616806F018F8E063616D5A
:10363000A06806F013F82064E16C2165A16CE164D8
:103640004FF08040A16D06F009F88046616D06F0EC
:1036500002F90746E16D05F001FEA064A16CE06887
:1036600005F0FCFF6064D4E90F0105F0F7FD80462A
:10367000616C05F0F3FD0746A16B05F0EFFDA0635B
:10368000A169A06B06F0B6F802D2A069A0630BE0B6
:10369000A06980F000473846A16B06F0ABF803D272
:1036A000A06980F00040A063A06B0FE73800002005
:1036B00040000020000040400000594070B5049CCC
:1036C00000B102B970BD017015684560556885602C
:1036D0009568C5608361C46100260665C66486641A
:1036E000866346640664C663C66586654665044DA2
:1036F0002D68456146630663C66200BFE2E70000CD
:103700003C00002001460148405C7047CC0100208D
:10371000002004E00021034A1154411CC8B20928CA
:10372000F8DB7047CC01002038B50446012000903A
:103730000020214948700120009037E0BDF80000CA
:10374000204028B1012291021C48FDF73FF905E015
:1037500000224FF480611948FDF738F90122082151
:103760001748FDF733F90A2000F0A4FF00220821D2
:103770001348FDF72BF90A2000F09CFF01220821D5
:103780000F48FDF723F910210D48FDF717F930B167
:1037900009484078BDF80010084307494870BDF853
:1037A00000004FF6FF7101EA40000090BDF80000F4
:1037B000FF28C3DD38BD0000CC0100200008014017
:1037C000000C014010B5FFF7A3FF00F085F80F488B
:1037D000C0780E49097940EA01200D49088000248B
:1037E0000FE00C4810F81400401E012101FA00F00F
:1037F00007490988084010B9601CC0B210BD601CA0
:10380000C4B2102CEDDB0020F8E70000CC01002052
:10381000420000204600002010B50022202115485B
:10382000FDF7D4F8102000F045FF0120FFF77CFFE2
:103830004320FFF779FF0020FFF776FF0120FFF715
:1038400073FF0020FFF770FF0020FFF76DFF0020DF
:10385000FFF76AFF0020FFF767FF0020FFF764FF14
:10386000012220210348FDF7B1F8102000F022FFCB
:1038700010BD0000000C014010B5002220211548A9
:10388000FDF7A4F8102000F015FF0120FFF74CFF12
:103890004320FFF749FF0020FFF746FF0020FFF716
:1038A00043FF5A20FFF740FF5A20FFF73DFF5A2001
:1038B000FFF73AFF5A20FFF737FF5A20FFF734FF90
:1038C000012220210348FDF781F8102000F0F2FECC
:1038D00010BD0000000C01401CB50020019001202B
:1038E0000090002220212848FDF770F82749087829
:1038F000FFF71AFF25494878FFF716FF02200190CD
:1039000037E00120009028E0012208211E48FDF741
:103910005DF8002208211C48FDF758F80A2000F045
:10392000C9FE012208211848FDF750F81021164859
:10393000FDF744F850B116489DF80410405CBDF8FE
:103940000010084312499DF804208854BDF8000077
:103950004FF6FF7101EA40000090BDF80000FF281B
:10396000D2DD0A2000F0A6FE9DF80400401CC0B283
:1039700001909DF804000928C3DB012220210248A0
:10398000FDF724F81CBD0000000C0140440000209D
:10399000CC01002010B500F00DF800F00BF800F09D
:1039A00009F8FFF739FF00F029F800F053F8FFF7A6
:1039B00063FF10BD10B5002220210F48FDF706F867
:1039C000102000F077FE0120FFF7AEFE4220FFF747
:1039D000ABFE0020FFF7A8FE0020FFF7A5FE0020A9
:1039E000FFF7A2FE012220210348FCF7EFFF102081
:1039F00000F060FE10BD0000000C014010B5002278
:103A000020211348FCF7E2FF0120FFF78DFE442040
:103A1000FFF78AFE0020FFF787FE0120FFF784FEF4
:103A2000EE20FFF781FE0020FFF77EFE0020FFF76B
:103A30007BFE0020FFF778FE0020FFF775FE0122D5
:103A400020210348FCF7C2FF102000F033FE10BD18
:103A5000000C014010B5002220210F48FCF7B6FFF2
:103A6000102000F027FE0120FFF75EFE4D20FFF73B
:103A70005BFE0020FFF758FE0020FFF755FE0120F7
:103A8000FFF752FE012220210348FCF79FFF102080
:103A900000F010FE10BD0000000C014010B5FDF755
:103AA00047FC10BD2DE9F04782460E461746984662
:103AB000DDE908590A9C4FF08041D9F8380005F03B
:103AC00099FE1ED21CB92F48006845630EE0042CF5
:103AD00003D12C480068856308E0082C03D12948ED
:103AE0000068C56302E02748006805640022394683
:103AF0005046FCF76BFF012241463046FCF766FF5B
:103B00003DE04FF04041D9F8380005F073FD1ED27A
:103B10001CB91C48006845630EE0042C03D1194809
:103B20000068856308E0082C03D116480068C56367
:103B300002E0144800680564012239465046FCF74B
:103B400045FF002241463046FCF740FF17E024B90C
:103B500000200C490968486311E0042C04D10020BE
:103B60000849096888630AE0082C04D10020054947
:103B70000968C86303E00020024909680864BDE8D9
:103B8000F0870000FC04002008B508490968C9084E
:103B90004FF47A72B1FBF2F14143009100BF00BFD4
:103BA00000994A1E00920029F9D108BD3801002071
:103BB00000BF012002F0FCF9FBE710B54FF0E02058
:103BC000006904F0B5FA012801D003F06BFE10BDC6
:103BD00000B58FB0282105A8FCF7DBFB142168464F
:103BE000FCF7D7FB01200590000406900020079009
:103BF0000120099002200C90C1030D914FF4E011B7
:103C00000E9105A8FDF7EAFC08B1FCF7E4FC0F20D3
:103C1000009002200190002002904FF480600390F9
:103C20000020049002216846FDF792FB08B1FCF7E2
:103C3000D2FC0FB000BD704710B50248FEF793F8F4
:103C400010BD00008C05002010B50248FEF78BF86F
:103C500010BD00004405002010B502681C4B9842BE
:103C600008D0B0F1804F05D01A4B984202D01A4BC1
:103C7000984203D122F070024B681A43144B9842C9
:103C800008D0B0F1804F05D0124B984202D0124BB1
:103C9000984203D122F44072CB681A4322F0800389
:103CA0004C6943EA040202608B68C3620B6883625A
:103CB000074B984201D10B690363012343610369F8
:103CC00003F001031BB1036923F00103036110BD7D
:103CD000002C0140000400400008004030B501F015
:103CE0001F05012404FA05F3046A9C430462046A74
:103CF00001F01F0502FA05F52C43046230BD30B512
:103D00000C46816821F47F4142EA0325254329437B
:103D1000816030BD0A46816821F0700142F00703DE
:103D2000194381607047000030B5026A056A25F0CA
:103D3000010505624368846924F0700424F00304DB
:103D40000D682C4322F002028D682A430D4DA842D3
:103D500006D100BF22F00802CD682A4322F00402F7
:103D6000084DA84207D123F4807323F400734D69F2
:103D70002B438D692B43436084614D684563026228
:103D800030BD0000002C014030B5026A056A25F004
:103D9000100505624368846924F4E04424F4407407
:103DA0000D6844EA052422F020028D6842EA0512DB
:103DB0000E4DA84207D100BF22F08002CD6842EA32
:103DC000051222F04002094DA84209D123F4806374
:103DD00023F400634D6943EA85038D6943EA850353
:103DE000436084614D688563026230BD002C0140F0
:103DF00030B5026A056A25F4807505624368C469B6
:103E000024F0700424F003040D682C4322F40072A3
:103E10008D6842EA05220F4DA84207D100BF22F467
:103E20000062CD6842EA052222F48062094DA84270
:103E300009D123F4805323F400534D6943EA051359
:103E40008D6943EA05134360C4614D68C56302622E
:103E500030BD0000002C014030B5036A056A25F42E
:103E6000805505624468C26922F4E04222F440723F
:103E70000D6842EA052223F400538D6843EA0533B6
:103E8000064DA84204D124F480444D6944EA8514C7
:103E90004460C2614D680564036230BD002C01407E
:103EA00030B50B461446026A056A25F00105056225
:103EB000816921F0F00141EA041122F00A021A435B
:103EC0008161026230BD30B50B461446026A056A54
:103ED00025F010050562816921F4704141EA043141
:103EE00022F0A00242EA03128161026230BD70B585
:103EF0000546284603F004F9044614B1D4E900103D
:103F0000884770BD00BFFEE7490050EAC12018BFD6
:103F100004204A0D18BF40F0010040F2FF72B2EBDE
:103F2000515F08BF40F00200012808BF052070471C
:103F300002480068C0F30220704700000CED00E06A
:103F400010B5002804DB0A07130E054A135406E0D7
:103F50000A07140E034A00F00F031B1FD45410BDB0
:103F600000E400E018ED00E0EFF3058070472DE974
:103F7000F0414F1E00EBC7010446D1E90001154690
:103F80001E4637F006020DD02A46334604F02AFEBC
:103F90007F1E04EBC703D3E9002304F0A5FB37F031
:103FA0000602F1D1022F25D0042F13D0062F18BFFF
:103FB000BDE8F0812A46334604F014FED4E90A2312
:103FC00004F092FB2A46334604F00CFED4E90823A1
:103FD00004F08AFB2A46334604F004FED4E90623A3
:103FE00004F082FB2A46334604F0FCFDD4E90423A6
:103FF00004F07AFB2A46334604F0F4FDD4E90223A8
:1040000004F072FB2A46334604F0ECFDD4E90023A9
:10401000BDE8F04104F068BB012205F0CEBC04F01D
:1040200063BB002213461046114604F019BC000081
:10403000024A0020110705F0C0BC000001FDFFFF8F
:104040002DE9F04D8D4F21F0004A86B005460C4613
:10405000BA452ADBAAEB070028430AD088488245E4
:1040600001DC1AD1CDB106B02846BDE8F04DFFF70E
:10407000D3BF844A844B284604F0B4FD07460E465D
:10408000824A834B2846214604F0ACFD06B03A46EE
:104090003346BDE8F04D04F027BB0120FCF7A8F93A
:1040A00006B0BDE8F04DFFF7BCBF7A48824542DA62
:1040B000BAF1795F0BDA2846FFF726FF042808BF1C
:1040C000FFF7B6FF284606B02146BDE8F08D2A4628
:1040D0000B46104604F086FD834602466E480E46A7
:1040E0000B4606217844FFF742FF5A46334604F058
:1040F00079FD804669488A465A4633460421784409
:10410000FFF735FF5A46334604F06CFD00223B466C
:1041100004F0EAFA02460B464046514604F0A0FB82
:104120002A46234604F05EFD06B02A462346BDE833
:10413000F04D04F0D9BA284624F0004100223D4653
:104140003B4604F083FE4FF0FF3205F036FC064696
:10415000024653480F460B4606217844FFF707FFF7
:1041600032463B4604F03EFDCDE900014D48324663
:104170003B4604217844FFF7FAFE32463B4604F002
:1041800031FD00222B4604F0AFFA834602913046FF
:10419000394603F035F8804643480D46504517DC54
:1041A000DDE900015A46029B04F05AFB42462B46C9
:1041B00004F018FD42462B4604F096FA012205F061
:1041C000FCFB304A304B04F033FF304A304B4CE0BC
:1041D0004FF0000A52460B46404604F085FACDE9FE
:1041E000031052462B461046194604F0FBFC32469B
:1041F0003B4604F02BFEDDE9033204F031FB0646BA
:104200000F46DDE900015A46029B04F029FB834674
:10421000009101223046394605F0CFFB194A1A4B6E
:1042200004F014FE06460F4601224046294605F0DA
:10423000C4FB5A46009B04F0D5FC32463B4604F0D2
:10424000F7FE06460F4601225046294605F0B5FB0B
:104250000E4DDFF858802A46434604F0F7FD3246FB
:104260003B4604F0F3FD2A46434604F0EFFD002CE4
:10427000D8BF81F0004106B0BDE8F08D0000F03FEE
:104280000000F07F075C143326A6913C182D44549F
:10429000FB21F93F0000E03F506700006667000027
:1042A000DA660000F06600003333EF3FFB21E93FA0
:1042B0002DE9F84F04460D4621F000400091734966
:1042C000814211DC7249884201DC06D12CB12046C2
:1042D0002946BDE8F84FFFF79FBE6E48002DCCBFC2
:1042E0006D496E49BDE8F88F6D49814211DD6D4918
:1042F0008142D8BF4FF0FF366DDD20462946FFF7DB
:1043000003FE042808BFFFF793FE20462946BDE8B8
:10431000F88F6549654F25F00045814233DD6449DA
:10432000814219DD002632464FF08043204629465F
:1043300004F0DAF980468A4601222046294605F033
:104340003CFB00223B4604F073FE4246534604F019
:1043500087FA04460D463EE001260022BA463B4657
:104360002046294604F0C0F980460F4600225346F5
:104370002046294604F05CFE42463B4604F070FAB3
:1043800004460D4627E04B4981421BDDDFF828A19A
:104390000226002253462046294604F023FC002230
:1043A0003B4604F0A1F980460F46002253462046C2
:1043B000294604F03DFE42463B4604F051FA0446CD
:1043C0000D4608E0032622462B4600203B4904F018
:1043D00047FA04460D4622462B461046194604F07D
:1043E00001FC8B46824602460B4604F0FBFB074667
:1043F0000246334888460B4606217844FFF7B7FD4E
:1044000052465B4604F0EEFB82462E488B463A4607
:10441000434605217844FFF7AAFD3A46434604F097
:10442000E1FB02460B46002E504659460CDA04F0DA
:104430005BF922462B4604F0D5FB01B022462B4601
:10444000BDE8F04F04F002BD04F04EF922462B46C1
:1044500004F0C8FB1C4A7A4402EBC603D3E90023EC
:1044600004F0E6FD22462B4604F0E2FD174A7A44AA
:1044700002EBC603D3E9002304F0E8FC009A002A0B
:10448000B8BF81F00041BDE8F88F00000000104483
:104490000000F07F182D4454FB21F93FFB21F9BFA8
:1044A0000000DC3F0000203E0000F33F0000F03F32
:1044B0000000E63F008003400000F83F0000F0BF2E
:1044C000F2640000B06400004E6400001664000056
:1044D0002DE9F04D9446CCF1000423F000464CEA5F
:1044E0000404524F46EAD4749A46884621F00042AA
:1044F000BC4206D8454240EA050442EAD474BC42B4
:1045000004D9BDE8F04D6246FFF789BDAAF14055D8
:10451000A5F17F6555EA0C040BD0022404EAAA74C5
:10452000434DDFF810E144EAD87452EA000B04D09E
:104530000CE0BDE8F04DFFF7BBBE002C14BF012C12
:10454000BDE8F08D022C30D0032C32D056EA0C0B93
:104550000AD0BE4220D1BA4209D126F0804622F0CC
:1045600080423346114617E000291ADB25E0DFF8C8
:10457000C8B0FB44002C04BFDBE90001BDE8F08DAE
:10458000012C02BFDBE9000181F00041BDE8F08DA4
:10459000022C0AD0032C0CD0BA4212D1B8F1000F71
:1045A0000BDA23482549BDE8F08D28462449BDE8AB
:1045B000F08D28467146BDE8F08D1D482149BDE8C3
:1045C000F08D921B12153C2AC4BF19481D490EDC00
:1045D000BAF1000FBEBF12F13C0F0020014606DB0E
:1045E000624604F03DF921F00041FFF761FE002C26
:1045F00008BFBDE8F08D012C04BF81F00041BDE88B
:10460000F08D114A114B022C07D004F011FD2A46FF
:10461000BDE8F04D0A4B04F00BBD04F009FD2A463D
:10462000BDE8F04D064B04F011BC00000000F07F27
:10463000182D4454FB2109C0AA630000FB21F9BFD7
:10464000FB210940FB21F93F075C143326A6A13C5E
:104650002DE9F0410446E07800F0C006E07800F073
:104660003F05607800F0010098B1EF102846E91787
:1046700005EB5171C910A5EBC101491C01F0FF0800
:104680000B48006820B10A48414602683846904706
:1046900000BF607800F0080030B10548406818B1EC
:1046A000B011034A516888470020BDE8F08100003E
:1046B000BC01002010B5084B5968084B1B68084C1A
:1046C000B3FBF4F303FB00F200BF034B5B685B1A20
:1046D0009342FAD310BD0000001000E03801002022
:1046E00040420F0038B5044664B120208DF8000028
:1046F00028208DF8010030208DF8020038208DF838
:10470000030004E0A32204216846FBF73AFE6A4650
:10471000042140F69E2001F0FDFB00F0A5FF38BD0E
:104720003EB5044602208DF80000CA208DF8010035
:10473000E3208DF8020009208DF803006A46042169
:10474000682001F0E7FBA3208DF8000004F0400092
:1047500048B1C0208DF80100C8208DF80200C220A9
:104760008DF8030006E0A3208DF801008DF802000B
:104770008DF8030004F4C07048B1C4208DF8040023
:10478000CC208DF80500C6208DF8060006E0A32099
:104790008DF804008DF805008DF80600A3208DF833
:1047A00007008DF808008DF809006A460A2140F6D6
:1047B000A72001F0AFFB04F0030018B120208DF812
:1047C000000002E0D8208DF800006A46012140F682
:1047D000B62001F09FFB04F0200018B1012000F08A
:1047E000ADF802E0002000F0A9F804F4C07008B3AE
:1047F00004F4807060B1B2208DF800008B208DF839
:104800000100B6208DF802009B208DF803000BE01C
:10481000B0208DF8000080208DF80100B4208DF8C4
:10482000020090208DF803006A46042140F6A22081
:1048300001F070FB04F0010020B3F8208DF80000B7
:104840006A4601214FF40B6001F064FBFA21072056
:1048500000F000FB072000F0C7FA012000F0E7FAA3
:10486000642000F0C7FB4FF4FA7000F0D6FBC821BB
:10487000304800F077FA282000F090FA0A2000F083
:10488000A0FA08E0D8208DF800006A4601214FF414
:104890000B6001F03FFB04F0020018B1D9208DF845
:1048A000000002E0D8208DF800006A46012140F2A5
:1048B0003D7001F02FFB04F0040018B1012000F05E
:1048C00069F802E0002000F065F804F0100018B16B
:1048D0000120FFF707FF02E00020FFF703FF44F08D
:1048E00008001549488100F0BFFE00201249887376
:1048F00004F0400018B10846807B801D887304F4E2
:10490000C07020B10C48807B801D0B49887304F077
:10491000140020B10848807B10300749887304F0E8
:10492000030020B10448807B001D034988730020E8
:104930003EBD000009E3CA02BC0100203EB50446AA
:104940006CB10EA1D1E900208968CDE90020029167
:104950006A4609214FF4976001F0DCFA3EBD0AA2D5
:10496000D2E900109268CDE9010200916A4609215E
:104970004FF4976001F0CEFAF0E70000B8AAB38DCB
:10498000B4980D355D000000B8AAAAAAB088C3C5C6
:10499000C700000038B5044664B1C0208DF800009F
:1049A000C2208DF80100C4208DF80200C6208DF8C9
:1049B000030004E08B2204216846FBF7E2FC6A4610
:1049C000042140F6982001F0A5FA00F04DFE38BD14
:1049D00010B5C8234FF48062024940F6F63000F06B
:1049E00097FC10BD9C9A00082DE9F04F8DB007464A
:1049F000884615469946DDE9166B00240020308074
:104A00006D49887B5A4605A900F068FD18B1601E03
:104A10000DB0BDE8F08F6848807A00F014000028DF
:104A200067D09DF8140000069DF8151040EA01407B
:104A30009DF8161040EA01209DF8171008432860E1
:104A40009DF8180000069DF8191040EA01409DF8F5
:104A50001A1040EA01209DF81B10084368609DF879
:104A60001C0000069DF81D1040EA01409DF81E1034
:104A700040EA01209DF81F100843A8609DF820001F
:104A800000069DF8211040EA01409DF8221040EAFE
:104A900001209DF823100843E86004F11000C4B21F
:104AA000286800140190686800140290A868001437
:104AB0000390E8680014049001984043029901FBB8
:104AC0000100039901FB0100049901FB010ABAF1FD
:104AD000706F02DBBAF1885F05DD00F0C5FD0020D4
:104AE0003080401E94E7B6F9000040F480703080BA
:104AF00000BF3148807A00F0400020B305A9601C57
:104B0000085C095D40EA012000B2A8F8000005A990
:104B1000E01C095C05AAA01C105C41EA002000B260
:104B2000A8F8020005A9601D095C201D105C41EA7F
:104B3000002000B2A8F80400A01DC4B2B6F900001D
:104B400040F0080030801C48408900F4C07008B371
:104B500005A9601C085C095D40EA012000B23880AC
:104B600005A9E01C095C05AAA01C105C41EA002014
:104B700000B2788005A9601D095C201D105C41EA27
:104B8000002000B2B880A01DC4B2B6F9000040F009
:104B9000700030800848807A00F0030018B105A941
:104BA0000819FFF755FD00BFFBF716FFC9F8000015
:104BB00000BF00202CE70000BC01002030B585B00C
:104BC000044616A207CA02AB07C3C82C03DD4FF088
:104BD000FF3005B030BDC82090FBF4F0401E85B218
:104BE000280A8DF80000E8B28DF801006A4602211B
:104BF00040F2162001F08EF910B14FF0FF30E8E7D7
:104C000002AA0C2140F6C12001F084F910B14FF046
:104C1000FF30DEE7044884810020DAE7FEF2ABC40F
:104C2000AAF1DFDFBBAFDFDFBC01002010B586B02B
:104C3000044647A00068039046A00068029046A082
:104C40000068019045A00068009004F0030003A9EB
:104C5000085C8DF8140003A8C4F3C101405C8DF812
:104C6000150003A8C4F38111405C8DF8160004F010
:104C7000030002A9085C8DF8100002A8C4F3C1016A
:104C8000405C8DF8110002A8C4F38111405C8DF8DE
:104C9000120005AA032140F2264001F03BF918B1A9
:104CA0004FF0FF3006B010BD04AA032140F22A40A5
:104CB00001F030F910B14FF0FF30F3E701980590A3
:104CC0000098049004F0040058B19DF8140040F0DE
:104CD00001008DF814009DF8100040F001008DF8DF
:104CE000100004F0200058B19DF8150040F00100BC
:104CF0008DF815009DF8110040F001008DF81100AD
:104D000004F4807058B19DF8160040F001008DF851
:104D100016009DF8120040F001008DF8120005AA5F
:104D200003214FF4886001F0F5F810B14FF0FF3027
:104D3000B8E704AA032140F2314001F0EBF810B1CA
:104D40004FF0FF30AEE7064804810020AAE70000DC
:104D50004CCD6C000CC92C003656760026466600F9
:104D6000BC010020F8B505460E464FF47A7095FB5D
:104D7000F0F000FB06F4200E8DF80000200C8DF8FA
:104D80000100200A8DF80200E0B28DF803006A46A7
:104D900004214FF4AE7001F0BDF8F8BD38B50446FB
:104DA000052094FBF0F084B220128DF80000E0B2F0
:104DB0008DF801006A4602214FF4AD7001F0AAF8A7
:104DC00038BD38B50446052094FBF0F084B22012BB
:104DD0008DF80000E0B28DF801006A4602214FF420
:104DE000AC7001F097F838BD38B50446002000904B
:104DF00004F0010020B19DF8000040F03000009068
:104E000004F0020020B19DF8000040F00C0000907A
:104E100004F0040020B19DF8000040F00300009071
:104E20006A4601214FF4A47001F074F838BD38B51A
:104E30000446012C01DA012402E0042C00DD0424E4
:104E4000601EC0B200906A46012140F24F1001F08E
:104E500061F838BD2DE9FC4706460F4606F007000D
:104E600010B1B7F5C86F03DD4FF0FF30BDE8FC8728
:104E7000384604F0ABFB8146594904F05DFA8046A0
:104E8000684600F08FF99DF80000022806D004283B
:104E900016D0082826D0102848D135E04FF08D4193
:104EA000404604F0DBFB814604F058FB84B24D49D8
:104EB000404604F0D3FB814604F050FB85B238E055
:104EC0004FF08C41404604F0C9FB814604F046FB9C
:104ED00084B24549404604F0C1FB814604F03EFBE4
:104EE00085B226E04FF08B41404604F0B7FB814687
:104EF00004F034FB84B23D49404604F0AFFB8146E8
:104F000004F02CFB85B214E04FF08A41404604F0D7
:104F1000A5FB814604F022FB84B23549404604F0EB
:104F20009DFB814604F01AFB85B202E04FF0FF3092
:104F30009CE700BF20128DF80400E0B28DF8050058
:104F400028128DF80600E8B28DF8070006F001007F
:104F5000A0B101AA02214FF4EA7000F0DBFF10B10A
:104F60004FF0FF3082E70DF1060202214FF49270FC
:104F700000F0D0FF10B14FF0FF3077E706F00200ED
:104F8000A0B101AA02214FF4EC7000F0C3FF10B1F0
:104F90004FF0FF306AE70DF1060202214FF49470E2
:104FA00000F0B8FF10B14FF0FF305FE706F00400EB
:104FB000A0B101AA02214FF4EE7000F0ABFF10B1D6
:104FC0004FF0FF3052E70DF1060202214FF49670C8
:104FD00000F0A0FF10B14FF0FF3047E7002045E799
:104FE00000004843000040460000C0450000404526
:104FF0000000C04438B50446052094FBF0F085B2AB
:1050000028128DF80000E8B28DF801006A460221EE
:105010004FF4EF7000F07EFF38BD38B50446052030
:1050200094FBF0F085B228128DF80000E8B28DF8FC
:1050300001006A4602214FF4ED7000F06BFF38BDAD
:1050400070B50546284600F00FF80446E81C00F04D
:105050000BF844EAC00084B2A81D00F005F844EA49
:10506000801084B2204670BD014691F90020002ACC
:1050700001DD00201EE091F90020002A01DA042061
:1050800018E091F90120002A01DD012012E091F9D8
:105090000120002A01DA05200CE091F90220002A03
:1050A00001DD022006E091F90220002A01DA062043
:1050B00000E0072070470000FCF73AF8FEF76AFCB2
:1050C000FEF786FDFDF74AFEFDF728FFFDF77AFFA4
:1050D000FDF706FF1448FCF74DFD1448FCF780FD72
:1050E00000211148FCF7EEFF04210F48FCF7EAFF0E
:1050F00008210D48FCF7E6FF0C210B48FCF7E2FF06
:1051000000224FF400610A48FBF760FC0122D10243
:105110000748FBF75BFC00F05BFFFDF777FD00F055
:105120006DFF00BFFEE70000FC04002044050020E6
:105130000008014070B50446002624F00104184818
:1051400090F8240008B1002070BD1548807A10B98D
:105150004FF0FF30F8E71248057C807A2040104974
:1051600008740846007CA04202D04FF0FF3600E0F1
:10517000002614B90A48007D18B1012001F0E8FFAB
:1051800002E0002001F0E4FF3CB100F06DFA20B134
:10519000034805744FF0FF30D6E73046D4E70000EF
:1051A0000000002001461148407A30B1012807D0A4
:1051B000022808D003280CD108E0022008700BE078
:1051C0000420087008E00820087005E0102008702E
:1051D00002E04FF0FF30704700BF0448C07C18B1B8
:1051E00008784006000E08700020F4E70000002058
:1051F00010B586B0044680208DF8100040000121D3
:1052000004AACDE9002102903F480068427D3E4853
:105210004068017801233D48FBF786FE18B14FF046
:10522000FF3006B010BD6420FBF7D8F900208DF8E0
:1052300010004FF48070012104AACDE900210290F2
:1052400031480068427D30484068017801232F488A
:10525000FBF76AFE10B14FF0FF30E2E700212A4869
:10526000C174FF218172FF2027490872FF2126485F
:105270004172C1724FF6FF71C181FF2101748174C7
:105280000121017380F82210002180F8231041755C
:1052900001751630016041608160163880F8241075
:1052A00080F82510C1844FF4FA6000F089FC10B139
:1052B0004FF0FF30B5E7022000F00AFB10B14FF0CD
:1052C000FF30AEE72A2000F009FD10B14FF0FF30AB
:1052D000A7E7322000F04EFD10B14FF0FF30A0E7FD
:1052E0000020FFF727FF10B14FF0FF3099E70020B3
:1052F00000F03AFB10B14FF0FF3092E7002000F0D1
:1053000091FD00208DE7000000000020A80400208F
:105310002DE9F04389B005460E46904699462D4842
:1053200090F8250020B14FF0FF3009B0BDE8F083C0
:1053300016B94FF0FF30F8E7002423E0281B1028AF
:1053400001DD102000E0281B87B2321939462046C3
:1053500000F0E0FD10B14FF0FF30E6E705AA394656
:10536000204600F033F910B14FF0FF30DDE730197F
:105370003A4605A9FAF794FF10B16FF00100D4E79F
:10538000E01984B2AC42D9DB4FEA28208DF8100036
:1053900008F0FF008DF811004FF48070022104AA7C
:1053A000CDE9002102900B480068427F094840681F
:1053B000017801230848FBF7B7FD10B14FF0FF302B
:1053C000B3E70121034880F82510A0F826900020BB
:1053D000ABE7000000000020A80400201FB5044631
:1053E000282C03DD4FF0FF3004B010BD14BB0020AB
:1053F00000F034FC00208DF80C0007208DF80D0023
:105400004FF48070022103AACDE9002102903148B7
:105410000068427D2F484068017801232E48FBF741
:1054200083FD10B14FF0FF30DEE700212948017500
:105430000020D9E7012000F011FC20208DF80C009D
:10544000012C06D100208DF80D00052000F046FC4F
:1054500017E0052C06DC01208DF80D00052000F07A
:105460003DFC0EE0142C06DC02208DF80D000A2015
:1054700000F034FC05E003208DF80D00142000F04E
:105480002DFC9DF80D00072101EB8010C0B28DF8B6
:105490000D004FF48070022103AACDE90021029093
:1054A0000C480068427D0B484068017801230A4897
:1054B000FBF73AFD10B14FF0FF3095E708210548A2
:1054C000817200210173012101750020FFF732FE76
:1054D000002089E700000020A80400202DE9FF41FA
:1054E00004460F461646374890F8240020B94FF07E
:1054F000FF3004B0BDE8F0813248807A10B94FF037
:10550000FF30F6E74FF48070022103AACDE90021B5
:1055100002902C480068027B2A48406801780123E9
:105520002948FBF747FB10B14FF0FF30E1E79DF84A
:105530000D009DF80C1040EA0125A54203DA002079
:105540003070401ED5E71F4840684088B5EB600FBB
:105550001EDD4FF48070012103AACDE900210290E5
:1055600018480068C27C1748406801780123164833
:10557000FBF720FB10B14FF0FF30BAE79DF80C00AD
:1055800000F0100020B100F06FF86FF00100B0E7FC
:105590004FF48070CDE9007402900A480068427BA5
:1055A00008484068017801230748FBF703FB10B166
:1055B0004FF0FF309DE795FBF4F0401E3070002067
:1055C00097E7000000000020A80400207FB50446F3
:1055D0000D4616461EB94FF0FF3004B070BD20488E
:1055E000807A10B94FF0FF30F7E720128DF80C00E9
:1055F000E0B28DF80D009DF80D0028441849496867
:105600004989884202DD4FF0FF30E6E74FF48070B1
:10561000022103AACDE90021029011480068C27E50
:105620000F484068017801230E48FBF77DFC10B15C
:105630004FF0FF30D1E74FF48070CDE90065029064
:1056400007480068027E0648406801780123054843
:10565000FBF7B0FA10B14FF0FF30BEE70020BCE717
:1056600000000020A80400201FB59748807A18B9D0
:105670004FF0FF3004B010BD002003904FF4807055
:10568000012103AACDE9002102908F480068427CE5
:105690008D484068017801238C48FBF745FC10B128
:1056A0004FF0FF30E6E74FF48070012103AACDE907
:1056B000002102908448006842798348406801785C
:1056C00001238248FBF730FC10B14FF0FF30D1E7E7
:1056D0004FF48070012103AACDE9002102907A489D
:1056E0000068027978484068017801237748FBF721
:1056F0001BFC10B14FF0FF30BCE7734890F824005A
:10570000002870D00C2003904FF48070012103AA70
:10571000CDE9002102906C48006802796A4840682F
:10572000017801236948FBF7FFFB10B14FF0FF3010
:10573000A0E73220FAF752FFC02003906248807A37
:1057400000F0010020B19DF80C0040F02000039013
:105750004FF48070012103AACDE9002102905A483C
:105760000068027958484068017801235748FBF7E0
:10577000DBFB10B14FF0FF307CE75348407C10B1A9
:105780000220039001E0002003904FF4807001217B
:1057900003AACDE9002102904B480068427C4A48A8
:1057A0004068017801234948FBF7BEFB10B14FF078
:1057B000FF305FE7002003904FF48070012103AABF
:1057C000CDE9002102904048006842793E48406897
:1057D000017801233D48FBF7A7FB002872D04FF06A
:1057E000FF3047E7FFE7042003908001012103AA6F
:1057F000CDE90021029034480068027932484068BF
:10580000017801233148FBF78FFB10B14FF0FF30D7
:1058100030E72D48807C20B92B48807A00F00100C9
:1058200010B94020039001E0602003904FF4807095
:10583000012103AACDE900210290234800680279E2
:1058400021484068017801232048FBF76DFB10B127
:105850004FF0FF300EE73220FAF7C0FE1A48407CC6
:1058600010B10120039001E0002003904FF48070FC
:10587000012103AACDE90021029013480068427C6F
:1058800011484068017801231048FBF74DFB10B127
:105890004FF0FF30EEE64FF4807101220A481030DD
:1058A000CDE901210090103800684279064840682F
:1058B000017801230548FBF737FB10B14FF0FF30AB
:1058C000D8E6FFE70020D5E600000020A80400206D
:1058D0001FB504462248807A18B94FF0FF3004B053
:1058E00010BD022C06D0042C07D0082C08D0102C98
:1058F0000CD108E0002003900BE00820039008E0A2
:105900001020039005E01820039002E04FF0FF30D4
:10591000E5E700BF1248407A9DF80C10B0EBE10FAC
:1059200001D10020DBE74FF48070012103AACDE90B
:10593000002102900A480068C2790948406801784D
:1059400001230848FBF7F0FA10B14FF0FF30C6E72B
:105950009DF80C00C110024841720020BFE7000012
:1059600000000020A80400201FB504466648807C83
:10597000A04202D1002004B010BD002C5BD04FF437
:105980008070012103AACDE9002102905E480068E1
:1059900002795D484068017801235C48FBF70AF909
:1059A00010B14FF0FF30E6E79DF80C0020F020002A
:1059B00003904FF48070012103AACDE900210290E9
:1059C00051480068027950484068017801234F48E7
:1059D000FBF7AAFA10B14FF0FF30CCE70320FAF73B
:1059E000FDFD02200390484890F8220020B19DF868
:1059F0000C0040F080000390434890F8230020B151
:105A00009DF80C0040F0300003904FF480700121AD
:105A100003AACDE9002102903B480068C27D3A48C4
:105A20004068017801233948FBF77EFA002866D0E8
:105A30004FF0FF309FE74FF48070012103AACDE9BA
:105A4000002102903048006802792F4840680178B0
:105A500001232E48FBF7AEF810B14FF0FF308AE774
:105A60002948807A00F0010028B19DF80C0040F030
:105A70002000039004E09DF80C0020F0200003902B
:105A80004FF48070012103AACDE9002102901E4845
:105A9000006802791C484068017801231B48FBF725
:105AA00043FA10B14FF0FF3065E70320FAF796FD97
:105AB000154890F8220010B18020039001E00020EA
:105AC0000390114890F8230020B19DF80C0040F09D
:105AD000300003904FF48070012103AACDE900212A
